:020000040800F2
:10000000A0270220B9020008652900081529000868
:10001000C502000841160008D131000800000000A8
:100020000000000000000000000000008F2B00080E
:10003000CD1600080000000067290008312C0008D8
:10004000D3020008D3020008D3020008D30200083C
:10005000D3020008D3020008D3020008D30200082C
:10006000D3020008D3020008D3020008D30200081C
:10007000D3020008D3020008D3020008D30200080C
:10008000D3020008D3020008D3020008D3020008FC
:10009000D3020008D3020008D3020008D3020008EC
:1000A000D3020008D3020008D3020008D3020008DC
:1000B000D3020008D3020008D3020008D3020008CC
:1000C000D3020008D3020008D3020008D3020008BC
:1000D000D302000859310008D3020008D3020008F7
:1000E000D3020008D3020008D3020008D30200089C
:1000F000D3020008D3020008D3020008D30200088C
:10010000D3020008D3020008D3020008D30200087B
:10011000D3020008D3020008D3020008D30200086B
:10012000D3020008D3020008D3020008D30200085B
:10013000D3020008D3020008D3020008D30200084B
:10014000D3020008D3020008D3020008D30200083B
:10015000D3020008D3020008D3020008D30200082B
:10016000D3020008D3020008D3020008D30200081B
:10017000D3020008D3020008D302000800000000E8
:10018000D3020008D3020008D3020008D3020008FB
:10019000D3020008D3020008D3020008D3020008EB
:1001A000D3020008D3020008D3020008D3020008DB
:1001B000D3020008D3020008D3020008D3020008CB
:1001C000D3020008D302000800000000D302000898
:1001D000D3020008D3020008D3020008D3020008AB
:1001E000D3020008D3020008D3020008D30200089B
:1001F000D3020008D302000800F002F800F04CF827
:100200000AA090E8000C82448344AAF10107DA4571
:1002100001D100F041F8AFF2090EBAE80F0013F077
:10022000010F18BFFB1A43F0010318477433000095
:1002300094330000103A24BF78C878C1FAD8520726
:1002400024BF30C830C144BF04680C607047000050
:100250000023002400250026103A28BF78C1FBD8CF
:10026000520728BF30C148BF0B607047662903F0B2
:100270002A81782900F08280002070471FB503F0A2
:100280001DF900F023FB04000020002103F000F919
:10029000E0601FBD10B510BD00F030FC1146FFF747
:1002A000EDFF03F0B1F800F04EFC03B4FFF7F2FFEE
:1002B00003BC02F0A6FF0000094880470948004738
:1002C000FEE7FEE7FEE7FEE7FEE7FEE7FEE7FEE706
:1002D000FEE7FEE704480549054A064B7047000063
:1002E000352C0008F9010008A0210220A0270220D7
:1002F000A0230220A0230220704700000FB404496D
:1003000010B503AA029800F0CFFA10BC5DF814FBF8
:10031000100002202DE9F0410E4604460020206224
:100320002046E168884730B3252805D0D4E901216B
:100330009047206A401CF2E7E16820460027884782
:10034000050018D0A5F14100192802D820354FF436
:1003500000673246294620462760FFF787FF40B1F5
:10036000012804D0F61D26F007060836D8E7361D0A
:10037000D6E72846DAE7206ABDE8F08170B5044682
:100380000D4621461068AFF300802188090502D58B
:100390000F4A7A4402E00E4A7A440E32002104F1F8
:1003A000240305E000F00F060009965D5E54491C29
:1003B0000028F7D120780023000704D5702D02D043
:1003C00009B1022311322046BDE8704000F006B8A2
:1003D0004C31000070477047704770472DE9F04777
:1003E0000D4699469246044600F1240801688806A5
:1003F00004D5E06921F01001216000E00120A8424D
:1004000001DD471B00E00027A1697A1902EB090012
:10041000081AA0612078C00602D42046AFF30080FD
:10042000002608E0D4E901211AF806009047206A66
:10043000401C761C20624E45F4DB2078C0060AD5AD
:100440002046AFF3008006E0D4E901213020904738
:10045000206A401C2062381EA7F10107F4DC07E087
:10046000D4E9012118F805009047206A401C206259
:10047000281EA5F10105F3DC2046AFF300802078AB
:10048000000602D50220BDE8F0870120FBE7704797
:100490002DE9FF4F0C461E464FF0FF378BB0D2E9D7
:1004A0000001DDF860800A908A46C1F30A5505B95B
:1004B0003D46002108464FF00000BAF1000F00F45D
:1004C000400005DA00EB80004FF4400101EA5000E3
:1004D0004FEA9059B9F1010F00DDB9460A9850EA88
:1004E0004A000ED044F61050A5F2FF3545432F14B4
:1004F000B8F1000F1ED07542291E1EDDC9F10002A1
:100500001CE0B8F1010F4FF0000001D0302103E0F2
:10051000F24305E02154401CB042FBDB3046002290
:10052000002121540B99C1F80880C1E900200FB0C7
:10053000BDE8F08FBD1B6D1CDEE74A4600DA69425C
:1005400006A800F065FA06AB93E8070003AB83E862
:10055000070050460A9900F033FB8DE80700A0F52C
:1005600000501F3800900398002D09DD42F21F0152
:100570004A46084403A90390684600F092FD08E04B
:10058000A0F500504A461F3803A90390684600F0C2
:100590009CFD8DE807000004000C03D04FF0FF30F5
:1005A000410800E01046B8F1000F03D0002200928D
:1005B00015461EE0751E05D400F08CF930326255E8
:1005C0006D1EF9D5B3460122084302D000227F1CDC
:1005D00004E02078302801D100227F1E002A0997EC
:1005E00086D01DE0112D07DA00F074F93032625523
:1005F0006D1C50EA0102F5D1084302D00098C8B141
:100600000EE00021681E05E0235C625C6354225406
:10061000401E491C8142F7DBAB46A81B401E0990D7
:10062000002004F80B000B98099AC0F80880C0E974
:10063000002B7CE711264FF0000859E72DE9F04F19
:1006400088460446D21D22F0070191B0D1E900018D
:10065000CDE90A0102F0BDFD02460B98C00F01D0A2
:100660002D2007E02068810701D52B2002E0202102
:1006700001EAC000032A099001D0072A05DB0346DE
:100680004146204600F084F90BE12078800601D530
:10069000E06900E00620B8F1650F814606D0B8F1A8
:1006A000660F18D0B8F1670F70D131E00020B9F1B2
:1006B000110F009001DB112301E009F101030AAAE7
:1006C00001A90CA8FFF7E4FEDDE90C70002609F192
:1006D0000105834647E001204B4600904FF000475C
:1006E0000AAA01A90CA8FFF7D3FEDDE90DB00C9909
:1006F0005D46002610B909F101000D18B9EB05009F
:1007000003D4C0F1FF3609F10105A5EB09002BE088
:10071000B9F1010F01DA4FF001090020B9F1110F11
:100720000090484601DD112300E003460AAA01A912
:100730000CA8FFF7ADFEDDE90C704D4600268346A0
:10074000207800070AD4AB4500DA5D4601A8012DE8
:1007500004DD411911F8011C302907D04F4502DA98
:1007600017F1040F04DA012082460FE06D1EEEE758
:10077000002F02DCED1B3E4403E0781CA84200DDA4
:100780007D1CB81B00F1010A4FF0004720780007DC
:1007900003D4AA4501DB4FF0FF3A0021B7F1004F27
:1007A0000DF143088DF8431024D002202B23002F95
:1007B00001DA7F422D230A21021EA0F1010000DC94
:1007C0005FB197FBF1FC97FBF1F201FB1C7C174634
:1007D0000CF1300C08F801CDEEE7A8F10100037030
:1007E0002188090501D5452100E06521A0F1010816
:1007F00000F8011C09980FA9A1EB0807FF1D00B123
:100800000120411901EBEA70A1693844081A401E21
:10081000A0612078C00602D42046AFF3008009987A
:1008200028B1D4E901219047206A401C2062207839
:10083000C00622D52046AFF300801EE0002E04DB68
:10084000B34502DD01A8805D00E03020D4E901213C
:100850009047206A401C2062761CAAF101005FEAE2
:10086000000A0AD100F032F8C0680168405CD4E99F
:1008700001219047206A401C2062281EA5F1010535
:10088000DCDC07E0D4E9012118F8010B9047206A6D
:10089000401C2062381EA7F10107F3DC2046AFF3AD
:1008A0000080032011B043E6074B70B50D467B4432
:1008B00000F05BF80446284600F018F910B14FF03C
:1008C000FF3070BD204670BD9B2A00000048704775
:1008D0005C21022030B5B0F10A024FEA900E71F1AE
:1008E00000034EEA817EB0EB0E0061EB91014FEA0E
:1008F000101E4EEA017E10EB0E0041EB11114FEA83
:10090000102E4EEA016E10EB0E0041EB11214FEA62
:10091000104E4EEA014E10EB0E0041EB1141401813
:1009200041F100014FEAD00040EA41704FEAD101A5
:1009300010EB80054FEA810444EA907444EB010413
:100940006D1944EB0404521BA3414FF0000348BF50
:100950000A3200D530BD401C41F1000130BD00001D
:1009600001694A1C02610878704700B58FB0CDE973
:1009700001310021059105497944CDE90310114663
:100980006846FFF7C7FC0FB000BD0000E5FFFFFFA2
:100990002DE9F0411F46044603260168072A01F4A9
:1009A000006004DB08B116A505E016A503E008B158
:1009B00015A500E015A521F010002060A069C01E5B
:1009C000A0610FB1401EA0612046AFF300804FB17F
:1009D000D4E9012138469047206A401C2062C01C9F
:1009E000206206E0206AFAE7D4E9012115F8010B3C
:1009F0009047761EF8D22046AFF30080BDE8F08124
:100A00004E414E006E616E00494E4600696E6600B2
:100A10002DE9F047814616468AB0334878440DC820
:100A20008DE80D0030487844801C03AC0DC884E884
:100A30000D0041F69B300844372190FBF1F290FB0A
:100A4000F1F5A5F1800501FB12041B3C02D56442BF
:100A5000012000E00020DFF890A080460027FA4443
:100A6000AAF1BE0A0DE0E00709D03246684607EB5E
:100A700047010AEB810100F028FB8DE807006410B4
:100A80007F1C002CEFD1184F7F44AC3F18E0E807E3
:100A900014D007EB04100DF1180A90E80E008AE854
:100AA0000E00C068F04201D198190890324606A99C
:100AB00003A800F00AFB03AB83E807006D10641C79
:100AC000002DE4D132466946B8F1000F03A802D0E8
:100AD00000F0E7FA01E000F0F8FAC9E90001C9F80E
:100AE00008200AB0BDE8F087682B0000007B00F00A
:100AF00080007047004870473C2102207546FFF790
:100B0000F9FFAE4605006946534620F007008546CA
:100B100018B020B5FFF7DEFBBDE820404FF000061F
:100B20004FF000074FF000084FF0000B21F00701D5
:100B3000AC46ACE8C009ACE8C009ACE8C009ACE818
:100B4000C0098D46704710B50446AFF300802046BB
:100B5000BDE81040FFF7A9BB4FF0013C50F8042B53
:100B600051F8043B9A4215D1A2EB0C03934313EACC
:100B7000CC130BD150F8042B51F8043B9A4209D105
:100B8000A2EB0C03934313EACC13E7D04FF0000021
:100B9000704700BFD01A01BAB1FA81F101F0180113
:100BA00022FA01F0CB40C1F12001DBB2C0B2C01A81
:100BB0002CFA01F3D11A914311EAC311E6D170471F
:100BC0005FEA400C08BF91F0000F4FEA8C234FEA18
:100BD000C12243EA51514FEA1C5018BF00F5F040C2
:100BE0004FEA300018BF41F000415FEA6C5C00F052
:100BF0002980BCF1FF3F08BF40F080407047130CD4
:100C000006BF12044FF0100C4FF0000C130E04BF7F
:100C100012020CF1080C130F04BF12010CF1040CAA
:100C2000930F04BF92000CF1020CD30F04BF5200CB
:100C30000CF1010C11464FF00002A0F11F00A0EBD7
:100C40000C00704711F0004F08BF704731F00041B1
:100C50003FF4D5AF0B0C06BF09044FF0100C4FF05A
:100C6000000C0B0E04BF09020CF1080C0B0F04BFA3
:100C700009010CF1040C8B0F04BF89000CF1020C6C
:100C8000CB0F04BF49000CF1010CCCF12003A0EB09
:100C90000C0022FA03F302FA0CF241EA030100F11C
:100CA0000100704720F07F4C80EA030023F07F476B
:100CB000ACEB070303F57C5300F0004003F1FF03A6
:100CC0002DE980494FEA154B09B44FEA144325EA50
:100CD0000B4E24EA03480FF2042606EB13274908BB
:100CE0003E785FEA320203FB0667C7F5000707FBA1
:100CF00006F64FEA54374FEAD64606F1020607FBDE
:100D0000066CCCF1005C4FEA1C472CEA074C07FB51
:100D100006F40CFB06F504EB15464FEA961634BFB5
:100D200000204FF000404FEAD13706FB07FC4FEAA6
:100D30001C4C0CFB0BF7D21B03FB0CF761EB070100
:100D40000CFB0EF7B0EB074072EB17420CFB08F7F9
:100D500034BFA2EB0742B2EB074261EB17414FEA07
:100D60000C444FEA910706FB07FC4FEA1C4C0CFBB6
:100D70000BF7B0EBC74072EB573203FB0CF734BFF5
:100D8000A2EBC742B2EBC74261EB57310CFB0EF747
:100D9000B0EBC70072EB57720CFB08F734BFA2EB45
:100DA000C702B2EBC70261EB5771039F4FEA816143
:100DB00041EA921104EBCC044FEAD1374FEA826248
:100DC00006FB07FC42EA90124FEA80604FEA1C4C97
:100DD0000CFB0BF7D21B03FB0CF761EB07010CFBC1
:100DE0000EF7B0EB074072EB17420CFB08F734BF6D
:100DF000A2EB0742B2EB074261EB17414FEA8C5579
:100E00004FEA910704EB9C2406FB07FC4FEA1C4CBD
:100E10000CFB0BF7B0EBC74072EB573203FB0CF740
:100E200034BFA2EBC742B2EBC74261EB57310CFBB8
:100E30000EF7B0EBC70072EB57720CFB08F734BF2C
:100E4000A2EBC702B2EBC70261EB577115EB4C2561
:100E50004FEA816141EA92114FEA82624FEAD1374B
:100E600042EA901206FB07FC44F100044FEA80605E
:100E70004FEA1C4C0CFB0BF7D21B03FB0CF761EB8E
:100E800007010CFB0EF7B0EB074072EB17420CFBAF
:100E900008F734BFA2EB0742B2EB074261EB174100
:100EA00015EB1C154FEA813141EA92414FEA82323B
:100EB00042EA90424FEA80304FEA0C7644F1000457
:100EC00048EA03434EEA0B484FF0000EB2EB080C21
:100ED00071EB030724BF624639464EEB0E0E4FF00E
:100EE000000B0018524149414BEB0B0BB2EB080CC5
:100EF00071EB03077BF1000B24BF624639464EEBD2
:100F00000E0E4FF0000B0018524149414BEB0B0BFA
:100F1000B2EB080C71EB03077BF1000B24BF6246B8
:100F200039464EEB0E0E51EA020718BF46F0010695
:100F300016EB0E7655F1000254F1000103D5BDE821
:100F40008901BDE80088BDE88901BDE80048B619FF
:100F5000524141EB0101A3F10103704780807F7E84
:100F60007D7C7B7A7978777676757473727171701F
:100F70006F6E6E6D6C6C6B6A6A69686867666665D1
:100F80006464636362616160605F5F5E5E5D5D5C5F
:100F90005C5B5B5A5A5959585857575656555555D0
:100FA0005454535352525251515050504F4F4F4E30
:100FB0004E4D4D4D4C4C4C4B4B4B4A4A4A4949497E
:100FC00048484847474747464646454545444444C0
:100FD000444343434342424242414141002B26D4D1
:100FE000770021D01CB54FEA370703B44FF010004B
:100FF0004FF010014FF000000FBCBDE810400BF1A6
:10100000010BBBF1010F08BF5FEA170722BF12F106
:10101000010211F101014FF0004143F1000300F022
:10102000004043EA00007047F9D35708DAE746EA80
:10103000064613F1400F4FEA16461FDD13F1200F4D
:10104000DFBF16430A46002120335B42C8D0C3F1FC
:10105000200746EA064602FA07F74FEA164646EA2E
:101060000706C3F1200722FA03F201FA07F721FA73
:1010700003F14FF0000342EA0702B1E746EA020635
:1010800046EA06464FEA164646EA0106BCBF46EA6D
:101090000646360C4FF000034FF000024FF00001FF
:1010A0009EE72DE9C048934630B491E8380007C860
:1010B00031EA400C48BF34EA430C03D5FFF7F2FD98
:1010C000FFF78CFFF0BCBDE800882DE9C0489346CF
:1010D00030B491E8380007C810F0804F08BF13F013
:1010E000804F03D100F005F8FFF778FFF0BCBDE8B2
:1010F000008820F07F4780EA030023F07F4C07EB55
:101100000C03A3F57C5300F00040A3F1FE0392F022
:10111000000F00F0B38095F0000F00F077802DE90C
:1011200001494FEA11404FEA144621EA004800FB0A
:1011300006FC24EA064708FB06F607FB08F800FB56
:1011400007F718EB06484CEB164C4FEA124B18EB1E
:1011500007484FEA15464CEB174022EA0B4E0BFBB3
:1011600006FC25EA06470EFB06F607FB0EFE0BFB08
:1011700007F71EEB064E4CEB164C4FF000061EEB2D
:10118000074E4CEB174B18EB0B0840F1000018EB27
:101190000E0B58EB000840F100008F1A4FF00001D1
:1011A0003CBFC943661B14BFB5EB040C00213CBF18
:1011B000C943F61B4FEA17444EEA8E0E27EA044550
:1011C0004FEA1C4704FB07622CEA074C05FB07F7B4
:1011D0000CFB05F604FB0CFC16EB074642EB174232
:1011E00016EB0C4642EB1C421BEB060658EB0202C8
:1011F000414146EA9E0601D5BDE80189B619524132
:1012000041EB0101A3F10103BDE801894FEA144557
:101210004FEA114724EA054621EA074C05FB07F48B
:1012200006FB07F70CFB06F105FB0CFC11EB074175
:1012300044EB17444FEA124711EB0C4144EB1C44BA
:1012400022EA074C05FB07F206FB07F70CFB06F644
:1012500005FB0CFC16EB074642EB174216EB0C465F
:1012600042EB1C456A1854F1000148BF7047B6199B
:10127000524141EB0101A3F10103704795F0000FCA
:1012800037D04FEA11424FEA144721EA024624EAD6
:10129000074C02FB07F106FB07F70CFB06F402FB09
:1012A0000CFC14EB074441EB17414FEA154714EBD4
:1012B0000C4441EB1C4125EA074C02FB07F506FBF9
:1012C00007F70CFB06F602FB0CFC16EB074645EB9A
:1012D000174516EB0C4645EB1C42121951F1000163
:1012E00048BF7047B619524141EB0101A3F1010318
:1012F00070474FEA14454FEA114724EA054621EAB0
:10130000074C05FB07F106FB07F70CFB06F24FF055
:10131000000605FB0CFC12EB074241EB174112EBF8
:101320000C4251EB1C4148BF7047921841EB010140
:10133000A3F10103704700002148F0B5016887B0B0
:1013400041F0040101600068012403251D4E00F0F6
:1013500004000590C0206946CDE90004CDE90245AE
:10136000304600F0C7F9002769462002CDE9024562
:10137000CDE90007304600F0BDF901F0F5FA124D55
:101380002968086820F040000860C5E90474284610
:1013900000F0B6FE2968086840F0400008600122AD
:1013A0003046402100F0C3FA00223046802100F090
:1013B000BEFA01223046802100F0B9FA07B0F0BD34
:1013C00030380240000802405001022070B540242D
:1013D000FFF7B2FF102001F0FBFA142001F076FFB6
:1013E0004FF60476112000F0DDF8002000F0DAF866
:1013F000054601462EA0FEF781FFB54204BF33A08B
:10140000FEF77CFF052001F061FFB542EAD140F212
:10141000556000F0C7F8002000F0C4F84FF4005009
:1014200000F0C0F8002000F0BDF84FF4045000F0C8
:10143000B9F8002000F0B6F8782144F00B0000F075
:101440005FF83E2144F00C0000F05AF8022144F00D
:101450000D0000F055F82D2144F00E0000F050F87A
:101460000F2144F00F0000F04BF84FF42C5000F027
:1014700099F8002000F096F84FF4305000F092F800
:10148000002000F08FF8332000F08CF8002000F0EE
:1014900089F840F2555000F085F8002000F082F8FD
:1014A000002001F095FA15490120086070BD000088
:1014B0007265636569766520646174612069732073
:1014C0003A2025582E2E2E0A0000000041445331A8
:1014D0003331413032206973207265616479210AA9
:1014E0002020436F6E6669677572696E672052656A
:1014F000676973746572732E2E2E0A001400022021
:10150000F0B500260D4610F0200F044683B007D03A
:10151000204600F047F8002000F044F8064637E087
:101520001E4F00224021384600F001FA0A2001F047
:10153000F3FE8DF80440012319484FF47A7402AA8F
:10154000009401A900F06AFE1548012302AA8DF853
:10155000045001A9009400F061FE11480025012308
:101560008DF8045002AA009401A900F057FE0C481F
:10157000012302AA8DF8045001A9009400F04EFE48
:101580000A2001F0C9FE01223846402100F0CFF9BF
:101590000A2001F0C1FE03B03046F0BD0008024051
:1015A00050010220F0B5244F00224021044683B0B0
:1015B000384600F0BCF90A2001F0AEFE200A8DF892
:1015C00004001E4801234FF47A75009502AA01A970
:1015D00000F024FE9DF808004FF6FF7101238DF8FE
:1015E000044002AA009501EA0026144801A900F06F
:1015F00015FE9DF80800012302AA009540EA0604A2
:101600000E4800268DF8046001A900F007FE0B4883
:10161000012302AA8DF8046001A9009500F0FEFDE7
:1016200001223846402100F082F90A2001F074FEC0
:1016300003B02046F0BD0000000802405001022027
:10164000FEE7000070B4BFF34F8FBFF36F8F1A49EE
:1016500000200860194D296841F400312960BFF36A
:101660004F8FBFF36F8F16490860BFF34F8F081F6E
:10167000006843F6FF76134AC0F34E3CC0F3C9043A
:1016800006EA4C11204641EA80731360401EFAD2EC
:10169000BCF1010CF4D2BFF34F8F286840F48030C6
:1016A0002860BFF34F8FBFF36F8F0748016841F089
:1016B0000401016070BC704750EF00E014ED00E0E1
:1016C00084ED00E060EF00E09CEF00E0704790F8F0
:1016D0003510022903D08021416501207047052182
:1016E00080F835100068016821F0010101600020D8
:1016F000704700002DE9F84FDFF81C920022DFF858
:1017000014820F2709F1040A4FF0010E0B680EFA3C
:1017100002F52B40AB4240F0F780D1F804C0BCF199
:10172000020F18BFBCF1120F12D14FEAD20C00EB1E
:101730008C0CDCF820605407E40E07FA04FB26EA60
:101740000B06D1F810B00BFA04F43443CCF8204067
:1017500006684FEA420C91F804B003240BF0030B27
:1017600004FA0CF4A6430BFA0CFB4BEA06060660DF
:101770004E68012E18BF022E03D0112E18BF122E54
:1017800011D18668D1F80CB0A6430BFA0CFB4BEADA
:1017900006068660466826EA05050E79C6F3001639
:1017A000964035434560C56825EA04048D6805FA0E
:1017B0000CFC4CEA040CC0F80CC0D1F804C01CF0BE
:1017C000805F7CD0D8F800C04CF4804CC8F800C0D2
:1017D000D8F800C00CF4804CCDF800C022F0030C07
:1017E0000CF1804505F59835D5F808C89407240F05
:1017F00007FA04F62CEA0606A0F1804CBCF5003C82
:1018000048D0A0F1804CBCF5013C08BF4FF0010C62
:1018100040D0A0F1804CBCF5023C08BF4FF0020C58
:1018200038D0A0F1804CBCF5033C08BF4FF0030C4E
:1018300030D0A0F1804CBCF5043C08BF4FF0040C44
:1018400028D0A0F1804CBCF5053C08BF4FF0050C3A
:1018500020D0A0F1804CBCF5063C08BF4FF0060C30
:1018600018D0A0F1804CBCF5073C08BF4FF0070C26
:1018700010D0A0F1804CBCF5083C08BF4FF0080C1C
:1018800008D0A0F1804CBCF5093C0CBF4FF0090C0E
:101890004FF00A0C0CFA04FC4CEA060CC5F808C818
:1018A000D9F800C04C682CEA030C14F4803F18BF30
:1018B0004CEA030CC9F800C0DAF800C000E023E0ED
:1018C0004C682CEA030C14F4003F18BF4CEA030CDC
:1018D000CAF800C0114CD4F800C04D682CEA030CC3
:1018E00015F4801F18BF4CEA030CC4F800C00C4C60
:1018F000D4F800C04D682CEA030C15F4001F18BF83
:101900004CEA030CC4F800C0521C102AFFF4FEAECF
:10191000BDE8F88F44380240003C0140083C0140DB
:101920000C3C01400069084018BF01207047002AA4
:1019300008BF0904816170470148006870470000D2
:101940000400022002480168491C01607047000041
:1019500004000220074810B5016841F400710160DD
:10196000052000F05DF80F2000F006F800F018F8F0
:10197000002010BD003C024010B5044607484FF45B
:101980007A720068B0FBF2F000F0D0FD0022214630
:10199000501E00F013F8002010BD000000000220CF
:1019A0007047012200F01F0102FA01F14009800096
:1019B00000F1E020C0F8001170470000174B4DF80F
:1019C000044D1B68C3F30223C3F1070CBCF1040FE1
:1019D00088BF4FF0040C1C1D072C34BF0023DB1EF6
:1019E000012404FA0CFCACF1010C0CEA0101994051
:1019F00004FA03F35B1E1A40114300284FEA011159
:101A0000B8BF00F00F0000F1E020B4BF80F8141D53
:101A100080F800145DF8044B704700000CED00E006
:101A2000074A00F0070011684FF6FF03194041EA2A
:101A3000002040F0FD7040F08060106070470000B2
:101A40000CED00E01C4838B5016841F080510160A0
:101A500000681A4C00F080500090206840F48030FC
:101A60002060FFF769FF0546606810F4803F09D1E8
:101A7000FFF762FF401BB0F57A7F14D8606810F45E
:101A8000803FF5D0206840F400302060FFF754FF1D
:101A90000546606810F4003F0BD1FFF74DFF401B77
:101AA000B0F57A7F01D9032038BD606810F4003F9B
:101AB000F3D0002038BD00004038024000700040E4
:101AC0002DE9F047DFF8688104460D46D8F800009C
:101AD00000F00F00A8420CD2D8F8000020F00F0050
:101AE0002843C8F80000D8F8000000F00F00A84212
:101AF00070D120784F4F10F0020F05D03868A168E0
:101B000020F0F00008433860207810F0010F4ED02C
:101B100060684949012820D00968022822D011F0C4
:101B2000020F57D0396821F0030108433860FFF7EE
:101B300003FF0646606841F28839012816D0022862
:101B4000386800F00C0021D0F8B1FFF7F5FE801BDB
:101B5000484528D90320BDE8F087096811F4003F03
:101B6000E0D137E011F0007FDCD133E0386800F0DD
:101B70000C0004281BD0FFF7DFFE801B4845E9D886
:101B8000386800F00C000428F5D110E008280ED0C9
:101B9000FFF7D2FE801B4845DCD8386800F00C0007
:101BA0000828F5D103E0386810F00C0FCDD1D8F833
:101BB000000000F00F00A8420FD9D8F8000020F074
:101BC0000F002843C8F80000D8F8000000F00F000C
:101BD000A84202D00120BDE8F087207810F0040F61
:101BE00005D03868E16820F4E05008433860207878
:101BF00010F0080F06D03868216920F4604040EAF0
:101C0000C100386000F04EF83968F02292FAA2F272
:101C100001F0F001B2FA82F2D140084A515CC840AA
:101C2000074908600F20FFF7A7FE0020BDE8F087F6
:101C3000003C02400838024000380240CA34000824
:101C40000000022008480949006809684FF4E05282
:101C500092FAA2F201F4E051B2FA82F2D140044ABF
:101C6000515CC84070470000000002200838024064
:101C7000DA34000808480949006809684FF46042EE
:101C800092FAA2F201F46041B2FA82F2D140044A1F
:101C9000515CC84070470000000002200838024034
:101CA000DA3400082148006810F00C01204808BF11
:101CB0007047DFF880C0042904BF604670470829D8
:101CC00018BF70474DF8044D1B4A1168136801F0A6
:101CD0003F0113F4800F47F6C0730BD0BCFBF1F04B
:101CE0001168194093FAA3F3B3FA83F3D94000FBC8
:101CF00001F00AE0B0FBF1F01168194093FAA3F388
:101D0000B3FA83F3D94000FB01F011684FF440327D
:101D10005DF8044B92FAA2F201F44031B2FA82F279
:101D2000D140491C4900B0FBF1F07047083802402F
:101D30000024F40040787D01043802402DE9F84F7A
:101D4000DFF8A88304460078A8F1040710F0010F1B
:101D5000A7F104055AD0D8F8000000F00C000428C0
:101D600009D0D8F8000000F00C0008280CD1386821
:101D700010F4800F08D0286810F4003F46D0606847
:101D8000002800F0AF8141E06068B0F5803F04BFFB
:101D9000286840F480300AD010B1B0F5A02F11D0DF
:101DA000286820F480302860286820F4802028608B
:101DB0006068D0B1FFF7C0FD0646286810F4003F08
:101DC00008D023E0286840F480202860286840F488
:101DD0008030ECE7FFF7B0FD801B642800F225811E
:101DE000286810F4003FF5D010E0FFF7A5FD064687
:101DF000286810F4003F09D0FFF79EFD801B64287F
:101E000000F21381286810F4003FF5D1207810F01B
:101E1000020F50D0D8F800004FF0F80910F00C0F66
:101E200018D0D8F8000000F00C00082804BF38686B
:101E300010F4800F0ED0E0680028286828D040F009
:101E400001002860FFF778FD0646286810F0020FB1
:101E500009D011E0286810F0020F1CBFE0680128CB
:101E60000AD000F03FB9FFF767FD801B02287DD83C
:101E7000286810F0020FF6D0286899FAA9F22169B3
:101E8000B2FA82F220F0F80091400843286012E094
:101E900020F001002860FFF74FFD0646286810F08B
:101EA000020F08D0FFF748FD801B02285ED8286883
:101EB00010F0020FF6D1207810F0080F33D0DFF8C1
:101EC000309260690028D9F8000016D040F0010077
:101ED000C9F80000FFF730FD0646D9F8000010F001
:101EE000020F20D1FFF728FD801B02283ED8D9F829
:101EF000000010F0020FF5D015E020F00100C9F845
:101F00000000FFF719FD0646D9F8000010F0020F97
:101F100009D0FFF711FD801B022827D8D9F800004F
:101F200010F0020FF5D1207810F0040F63D0714843
:101F3000016841F08051016000686F4E00F08050F0
:101F40000090306840F480703060FFF7F5FC814607
:101F5000306810F4807F0BD1FFF7EEFCA0EB090096
:101F6000642862D8306810F4807F00E05DE0F3D030
:101F7000A068624E012804BF306840F0010009D01B
:101F800008B1052813D0306820F0010030603068B7
:101F900020F004003060A06841F2883AD0B1FFF729
:101FA000CBFC8146306810F0020F08D023E0306887
:101FB00040F004003060306840F00100EAE7FFF7CD
:101FC000BBFCA0EB090050452FD8306810F0020F81
:101FD000F5D010E0FFF7B0FC8146306810F0020F3A
:101FE00009D0FFF7A9FCA0EB090050451DD83068C7
:101FF00010F0020FF5D1A069E8B3D8F8001001F095
:102000000C0108296ED00228286820F08070286012
:102010000ED0FFF791FC0446286810F0007F5ED0D8
:10202000FFF78AFC001B022855D90320BDE8F88F72
:10203000FFF782FC0646286810F0007F08D0FFF703
:102040007BFC801B0228F0D8286810F0007FF6D1B6
:10205000D4E9070147F6C0724FF0FF3392FAA2F2BB
:102060000843616AB2FA82F29140A26A03EB52021B
:102070004FF4403300E032E093FAA3F3B3FA83F372
:102080009A4011434FF070620843E16A92FAA2F25B
:10209000B2FA82F291404FF0E0420843216B92FA8B
:1020A000A2F2B2FA82F2914008433860286840F008
:1020B00080702860FFF740FC0446286810F0007F1D
:1020C0000DD1FFF739FC001B0228AED8286810F0AC
:1020D000007FF6D003E0286810F0007FA0D1002038
:1020E000BDE8F88F0120BDE8F88F000008380240F5
:1020F000743802404038024000700040703802409E
:10210000002804BF012070472DE9F0410227044652
:10211000006B012620B194F85D00002560B906E04F
:10212000E068B0F5E06F8CBF27632663F3E72046D5
:1021300084F85C5000F046F884F85D70206801680F
:1021400021F040010160E168B1F5E06F8CBF002033
:102150004FF48050B1F5706F1CBFB1F5E06FA56210
:10216000D4E901121143D4E904231A431143228B09
:1021700002F400721143E2691143226A1143A26A18
:10218000114322681160216B022904D121680A6879
:1021900042F400620A60626B4FF0040C616AA3694A
:1021A0001143E2680CEA13431A43114308432168C0
:1021B00048602168E06A0861256684F85D60002057
:1021C000BDE8F08112484DF804ED87B0016841F098
:1021D00002010160006800F0020005900D480168EE
:1021E00041F4804101600068012100F480400590C5
:1021F0004FF4604000900220CDE9010103900520DA
:10220000049069460448FFF775FA07B05DF804FBCF
:102210003038024040380240000402402DE9F84FB7
:10222000994692468B4604460A9FFFF785FB8046F7
:1022300094F85C0001250026012804BF0220BDE8B7
:10224000F88F012084F85C0094F85D00012818BF25
:10225000022640F05681BBF1000F1CBFBAF1000FFF
:10226000B9F1000F00F04C81052084F85D000020DA
:102270002066C4F840A0A4F84690A4F84490C4F89E
:1022800038B0A4F83E90A4F83C90A06AB0F5005F86
:102290000AD1206801684DF6FF7211400160206884
:1022A000016841F400510160E068B0F5E06F9CBF47
:1022B000B4F846000128206841688CBF21F48051A1
:1022C00041F4805141602068016811F0400F03D152
:1022D000016841F040010160E068B0F5E06F4BD863
:1022E00000F0C0B8002D18BF002828D020688168F1
:1022F00011F0020F23D0A16B0988C1604FF00005D7
:10230000A06B801CA063E08F401E0004000CE087DF
:1023100004BFA06AB0F5005F11D12068016811F018
:10232000040F07D1416811F0080F03D0016841F490
:10233000007101602068016841F480510160B4F8C7
:10234000460080B12068816811F0010F0BD0C06891
:10235000216C0880206C801C2064B4F84600401E6C
:10236000A4F846000125B7F1FF3F05D0FFF7E4FAD6
:10237000A0EB0800B84273D2E08F002804BFB4F885
:1023800046100029AED1A06AB0F5005F73D0A0E07E
:10239000002D18BF002931D02068826812F0020F8A
:1023A0002CD00129A16B08D90988C160A06B801CC1
:1023B000A063E08F801EE08707E04A1CA2630978D3
:1023C0000173E08F401EE08700250004000C04BF6D
:1023D000A06AB0F5005F11D12068016811F0040F08
:1023E00007D1416811F0080F03D0016841F4007172
:1023F00001602068016841F480510160B4F8461022
:1024000029B32068826812F0010F20D0012913D966
:10241000C068216C0880206C801C2064B4F84600E1
:10242000801E80B2A4F84600012810D820684168B8
:1024300041F4805141600AE0017B206C421C22641F
:102440000170B4F84600401EA4F846000125B7F11B
:10245000FF3F07D0FFF770FAA0EB0800B84201D3A6
:1024600003264EE0E18F002904BFB4F8460000289F
:102470008ED188E7FFE701223B461146204600F057
:102480003AFBD0B9E068B0F5706F206808D0007BE7
:10249000ADF80000BDF80000206B022806D018E05F
:1024A000C068ADF80000BDF8000012E001223B4614
:1024B0001146204600F01FFB28B1206E40F00200BC
:1024C000206603261DE02068007BADF80000BDF803
:1024D00000002068816811F0100F07D0216E41F0D4
:1024E000020121664FF6EF718160012639462046D0
:1024F00000F088FA00281CBF20202066206E00B162
:102500000126012084F85D00002084F85C0030463C
:10251000BDE8F88F4FF0E021042808690CBF40F0B7
:10252000040020F00400086170470000401EB0F174
:10253000807F24BF012070474FF0E0214861F020E8
:10254000044A82F8140D00208861072008610020E9
:10255000704700000FE000E07047000070B50168B0
:102560000446C8690A688B6810F00F0F4FF0200509
:1025700051D040F2011C13EA0C0F7DD010F0010F76
:1025800018BF12F4807F07D04FF0010CC1F820C0B3
:10259000E16E41F00101E16610F0020F18BF13F087
:1025A000010F08D0D4F800C00221CCF82010E16E51
:1025B00041F00401E16610F0040F18BF13F0010FA1
:1025C00008D0D4F800C00421CCF82010E16E41F00E
:1025D0000201E16610F0080F0CD002F0200103F0B8
:1025E0000103194306D0236808211962E16E41F006
:1025F0000801E166E16E002908BF70BD10F0200FF0
:102600001EBF12F0200F204600F0E7FBE06E10F036
:10261000080F10D10AE010F0200F18BF12F0200FA1
:1026200039D02046BDE8704000F0D7BB20688068F4
:1026300010F0400F29D02068016821F490710160EA
:102640002068816821F00101816084F86A50206867
:10265000816811F0400F14D0816821F04001816041
:10266000606E70B12D490165606EFFF730F800288B
:1026700008BF70BD606E00E00DE0016DBDE8704008
:1026800008472046FFF768FF70BD2046FFF764FF4C
:102690000020E06670BD10F0800F18BF12F0800FB0
:1026A0002CD094F86900212818BF70BDB4F85200EE
:1026B00090B1A068B0F5805F04BF20690028E06C8D
:1026C00014D0411CE164216800788862B4F852009B
:1026D000401EA4F8520070BD086820F08000086019
:1026E0002068016841F04001016070BD0088C0F3BE
:1026F00008008862E06C801CE064E7E710F0400F9F
:1027000014BF12F0400F70BD20460A6822F040024C
:102710000A6084F8695000F0FCF870BDC72D00080D
:10272000002804BF0120704710B5044690F86900E6
:1027300028B9002084F86800204600F029F82420F9
:1027400084F869002068016821F0010101602046D9
:1027500000F082FB012808BF10BD606A00281CBF82
:10276000204600F093FA2068416821F490414160CE
:102770002068816821F02A0181602068016841F0A9
:10278000010101602046BDE8104000F0ECBA0000F5
:1027900030B50446006887B0A0F18041B1F58831BA
:1027A0001CBF07B030BD1B48016841F0010101604A
:1027B000006800F0010005901748016841F0100121
:1027C000016000680121154D00F0100005904FF4E4
:1027D000007000900220CDE90101039007206946B6
:1027E00004902846FEF786FF281569460090284683
:1027F000FEF780FF2068016841F02001016025207C
:10280000FFF7CFF8032225201146FFF7D7F807B0CE
:1028100030BD000030380240443802400000024021
:102820002DE9F84F044690F86A00984616460D4682
:1028300020286AD1002D12BF002E0120BDE8F88F9C
:1028400094F86800012860D0012084F868004FF0F7
:102850000009C4F86C90222084F86A00FFF76CF835
:10286000A4F858608246A4F85A60FF21A068B0F529
:10287000805F05D07F2250B1B0F1805F0CD012E0B4
:102880002069002808BF40F2FF1002D109E020694A
:10289000E8B9A4F85C1006E02069002818BF3F20C2
:1028A00015D0A4F85C00B4F85C60F7B2B4F85A0034
:1028B00000225346401EA4F85A0020212046CDF89D
:1028C000008000F00FFC28B10320BDE8F88FA4F8C9
:1028D0005C20E8E7A068B0F5805F04BF20690028AD
:1028E0002068406A19BF384005F8010B304025F8D0
:1028F000020BB4F85A000028D8D1202084F86A00CE
:10290000002084F86890BDE8F88F0220BDE8F88FB9
:1029100070477047FEE70000104810B586B00168A8
:1029200041F002010160006801210D4C00F002003D
:1029300005900320CDE90001CDE90210694620464B
:10294000FEF7D8FE012220461146FEF7F0FF0122D5
:1029500020460221FEF7EBFF06B010BD30380240E2
:10296000000402407047704710B5184C84B01648F8
:102970004FF4E06120604FF4827060600020C4E991
:10298000020102212161012161614902A161382115
:10299000C4E907106062A0620720E0622046FFF7EA
:1029A000AFFB2068016841F040010160FF208DF815
:1029B00004004FF47A7000900123204602AA01A976
:1029C000FFF72CFC04B010BD00380040500102207D
:1029D0000B4A11680B6823F040030B6011680B6809
:1029E0004FF6C77C03EA0C030B6011680B681843B1
:1029F00008601068016841F0400101607047000004
:102A00005001022070B500220D4604460B464FF4DB
:102A1000C05100F018F880B900222B464FF4C06175
:102A2000204600F010F840B900222B4680212046B5
:102A300000F061F8002808BF70BD206E40F0200053
:102A40002066032070BD2DE9F8431D4616460F464B
:102A50000446FEF771FF8046206880683840B04227
:102A600046D0B7F5C06F08BF002E05D12068007BA7
:102A70008DF800009DF80000B5F1FF3F33D02DB177
:102A8000FEF75AFFA0EB0800A8422CD3206841684B
:102A900021F0E00141606068B0F5827F0BD1A06851
:102AA000B0F5004F18BFB0F5806F04D12068016801
:102AB00021F040010160A06AB0F5005F0AD12068F2
:102AC00001684DF6FF72114001602068016841F411
:102AD00000510160012084F85D00002084F85C0052
:102AE0000320BDE8F883206880683840B042B8D140
:102AF0000020BDE8F8832DE9F0411D4690460F46C1
:102B00000446FEF719FF06462068806838404045B5
:102B10003AD0B5F1FF3F32D025B1FEF70DFF801B53
:102B2000A8422CD32068416821F0E0014160606830
:102B3000B0F5827F0BD1A068B0F5004F18BFB0F59B
:102B4000806F04D12068016821F040010160A06A13
:102B5000B0F5005F0AD1206801684DF6FF721140A0
:102B600001602068016841F400510160012084F88F
:102B70005D00002084F85C000320BDE8F08120683F
:102B8000806838404045C4D10020BDE8F0817047DE
:102B9000DFF894C010B594B0DCF8004044F08054E5
:102BA000CCF80040DCF800C00CF0805CCDF848C0E8
:102BB000DFF878C0DCF8004044F44044CCF8004032
:102BC000DCF800C002240CF4404CCDF848C04FF0B3
:102BD000010CCDF800C04FF4803CCDF804C04FF498
:102BE000800CCDE90810CDE90A23CDE9064C6846F2
:102BF000FFF7A4F800B1FEE7FEF724FF00B1FEE7FF
:102C00000F20CDE90D0400200F904FF4A05010903C
:102C10004FF48050119007210DA8FEF751FF0028B6
:102C200004BF14B010BDFEE7403802400070004001
:102C3000FEF788BE0F48016841F4700101600E483C
:102C4000016841F0010101600C4A00211160026835
:102C500022F4102222F080720260031D084A1A60DA
:102C6000026822F480220260064801605806064984
:102C70000860704788ED00E00038024008380240E4
:102C8000103000240C38024008ED00E090F82410C9
:102C900011F0010F06D001684A68836A22F40032FD
:102CA0001A434A6090F8241011F0020F06D0016810
:102CB0004A68C36A22F480321A434A6090F82410AA
:102CC00011F0040F06D001684A68036B22F48022D9
:102CD0001A434A6090F8241011F0080F06D00168DA
:102CE0004A68436B22F400421A434A6090F8241069
:102CF00011F0100F06D001688A68836B22F48052AD
:102D00001A438A6090F8241011F0200F06D0016851
:102D10008A68C36B22F400521A438A6090F8241028
:102D200011F0400F11D001684A68036C22F4801240
:102D30001A434A60016CB1F5801F06D101684A68E8
:102D4000436C22F4C0021A434A6090F8241011F038
:102D5000800F08BF704701684A68806C22F4002227
:102D6000104348607047F8B500260446C666FEF773
:102D7000E3FD0746206800686FF07E4510F0080FFD
:102D800008D000223B464FF400112046009500F089
:102D9000A9F968B92068006810F0040F0AD0002271
:102DA0003B464FF480012046009500F09BF908B1A6
:102DB0000320F8BD202084F8690084F86A00002010
:102DC00084F86860F8BD10B5806B0021A0F85A1037
:102DD000A0F85210FFF7C0FB10BD10B5B0F85C2092
:102DE00090F86A300168222B05D0886940F008000D
:102DF0008861022010BD8368B3F5805F04BF03695A
:102E0000002B20D0496A0A40416D4B1C43650A7073
:102E1000B0F85A10491E0904090CA0F85A101CBF3A
:102E2000002010BD01680A6822F490720A600168EF
:102E30008A6822F001028A60202180F86A10FFF778
:102E400067FD002010BD436D496A11401980416D36
:102E5000891C4165DCE7000070B5044680681021DC
:102E6000002223691546D4F81CC01843636943EA5D
:102E70000C0303432068D0F800C0964E0CEA060C01
:102E80004CEA0303036020684368D4F80CC023F4C1
:102E9000405343EA0C034360236AA069034320685C
:102EA000D0F808C02CF4306C4CEA0303836020682F
:102EB000894BA0F1804CBCF5883C15D01CF54C4CDE
:102EC0001DD0BCF5806C25D0BCF5806C2DD0BCF538
:102ED000806C35D0BCF5444C40D01CF51C4C4DD01A
:102EE000BCF5806C58D06CE01B6813F0030343D032
:102EF000012B63D0022B5FD0032B61D061E01B68F4
:102F000013F00C0356D0042B58D0082B54D00C2BA4
:102F100056D056E01B6813F030034BD0102B4DD029
:102F2000202B49D0302B4BD04BE01B6813F0C00353
:102F300040D0402B42D0802B3ED0C02B40D040E030
:102F40001B6813F4407335D0B3F5807F36D0B3F5EA
:102F5000007F31D0B3F5407F32D032E01B6813F4EC
:102F6000406309D0B3F5806F28D0B3F5006F23D04C
:102F7000B3F5406F24D024E0012122E01B6813F454
:102F8000405317D0B3F5805F18D0B3F5005F13D06E
:102F9000B3F5405F14D014E01B6813F4404309D02C
:102FA000B3F5804F0AD0B3F5004F05D0B3F5404FCD
:102FB00006D006E0002104E0022102E0042100E046
:102FC0000821E369B3F5004F08D009297FD2DFE873
:102FD00001F046525E7E677E7E7E7400092935D2FE
:102FE000DFE801F0050F1934213434342B00FEF7EB
:102FF00029FE4100606801EB5001B1FBF0F082B2A4
:1030000025E0FEF737FE4100606801EB5001B1FB9F
:10301000F0F082B21BE06068304901EB5001B1FB77
:10302000F0F082B213E0FEF73DFE4100606801EB74
:103030005001B1FBF0F082B209E060684FF48031DA
:1030400001EB5001B1FBF0F082B200E0012522F06B
:103050000F00C2F3420108432168C86038E0FEF760
:10306000F1FD0146606801EB5001B1FBF0F0216811
:1030700080B2C8602CE0FEF7FDFD0146606801EB00
:103080005001B1FBF0F0216880B2C86020E06168B7
:10309000134A02EB5102B2FBF1F189B2C16017E0B1
:1030A000FEF700FE0146606801EB5001B1FBF0F055
:1030B000216880B2C8600BE009E061684FF400420B
:1030C00002EB5102B2FBF1F189B2C16000E00125CF
:1030D000284670BDF369FFEF903802400048E801D0
:1030E0000024F4002DE9F041044600681E4617460E
:1030F000069D8846C06931EA00000CBF012000200F
:10310000B84226D1B5F1FF3F1AD025B1FEF714FC25
:10311000801BA84214D32068016821F4D07101609B
:103120002068816821F001018160202084F8690015
:1031300084F86A00002084F868000320BDE8F0816C
:103140002068C06938EA00000CBF01200020B842A6
:10315000D8D00020BDE8F0811A4838B50068C069B1
:1031600010F0200F28D0174801224FF47A736946D7
:10317000FFF756FB144A108810F4004F1CD19DF83D
:10318000001010F4804F4FF0000305D00A2908BF4B
:1031900040F4004014D00EE00D2908BF40F48040F8
:1031A0000ED00A4CC0F30D0C401C80B2C72804F8A6
:1031B0000C10108000D913800248FFF7CFF938BDFA
:1031C0001080F9E7E00002200C0002201800022025
:1031D000FEE703B401984100009850EAC12018BFEF
:1031E00004204A0D18BF40F0010040F2FF72B2EB1C
:1031F000515F08BF40F00200012808BF052002B05F
:10320000704770472DE9F0072A4E0021284D06F53A
:10321000487706F5C86806F5166901EB410005EB2D
:10322000C0000279437990F809C043EA0222837909
:10323000447B43EA0222037A00EE102A90F811A0A0
:1032400006EB81024CEA032390F80AC0B8EE400A6C
:103250004CEA032390F80CC044EA0C2C847B44EA2B
:103260000C2C047C807C82ED000A00EE103A07EB07
:1032700081024AEA0424B8EE400A40EA042082EDC2
:10328000000A00EE10CA08EB8102B8EE400A82ED97
:10329000000A00EE100A09EB8100B8EE400A80ED4A
:1032A000000A481CC1B2C829B7D3BDE8F00770476F
:1032B000CC010220A414022010B504460420FFF71C
:1032C00029F90148046010BD08000220F0B4002470
:1032D00000289CBFF0BC70470E494FF47A724FF043
:1032E000E026096801FB02F5D6F814C00021B36995
:1032F000B2699A42FCD026BFACEB02073B449B1A52
:1033000019441346A942F3D3641C8442ECD3F0BCA5
:10331000704700000800022030B44FF0E024002184
:103320006369094A126800FB02FCA269A069904225
:10333000FCD026BF1D1A2A44121A114402466145C8
:10334000F4D330BC70470000080002200349CA696A
:1033500012F0400FFBD0C2B28A62704700100140E9
:103360002DE9F843234E0024234F4FF47A78DFF8F9
:103370008C904FF4807125463846FEF7D3FA58B941
:10338000002230460121FEF7D2FA4FF48071384610
:10339000FEF7C8FA0028F3D04FF480713846FEF7E4
:1033A000C1FA01280BD1012230461146FEF7BFFABF
:1033B0004FF480713846FEF7B5FA0128F3D00022A9
:1033C00038464021FEF7B3FA05EB45000C491823B7
:1033D000CDF8008009EBC0020A48FEF71FFF01226A
:1033E00038464021FEF7A3FA601CC4B2C82CC0D3F3
:1033F000BDE8F8830004024000080240CC0102202E
:103400008C14022050010220FEF71CF9FEF7A2FAEC
:103410000923022219214FF4D870FFF7B9FBD820F5
:10342000FFF74AFF4FF4E13000F020F8FFF774FA9D
:10343000FDF7CCFF0A4DFFF793FFFFF7E3FE0024F3
:1034400005EB840090ED000A06A0B7EEC00A53EC2D
:10345000102BFCF753FF601CC4B2C82CF0D3EAE772
:10346000A414022025660D0A000000000749064A40
:10347000C1E9002000208860C860086188610C20D4
:1034800048610846FFF74CB900100140E0000220F7
:1034900010B500290AD00878002807D005487844DC
:1034A000FDF75AFB002801D0002010BD02487844E7
:1034B00010BD0000220100001A0100004FF0407012
:1034C000E1EE100A7047FDF7B9B8000000000000F7
:1034D00000000102030406070809000000000102C1
:1034E00003043031323334353637383941424344BE
:1034F000454640305800303132333435363738396C
:10350000616263646566403078000000024000003C
:10351000000000A00000000005400000000000C8FE
:10352000000000000C4000000000409C0000000073
:10353000194000000020BCBE000000003440000024
:10354000BFC91B8E00000004B5400000504BCFD017
:103550006607E2CF010000006C4100003E8251AAE4
:10356000DFEEA73401000000D9420000DCB5A0E284
:103570003A301F97FFFFFFFFB4450000FD25A0C8AC
:10358000E9A3C14FFFFFFFFFFF3F000000000080E5
:1035900000000000FF3F000000000080000000006D
:1035A000DC3500080000022018000000340200088A
:1035B000F435000818000220882700005002000897
:1035C0001C00000043000000F8FFFFFF0C0000009B
:1035D0000E0000000F0000002E0000000024F40088
:1035E00000000000000000000000000000000000DB
:0435F00000000000D7
:04000005080001F9F5
:00000001FF
