:020000040800F2
:10000000880B0220F9020008318F0008912A0008AD
:1000100005030008F5070008219D00080000000006
:10002000000000000000000000000000E79500084C
:100030008108000800000000B992000889960008B5
:100040001303000813030008130300081303000838
:100050001303000813030008130300081303000828
:100060001303000813030008130300081303000818
:100070001303000813030008130300081303000808
:1000800013030008130300081303000813030008F8
:1000900013030008130300081303000813030008E8
:1000A00013030008130300081303000813030008D8
:1000B0001303000813030008E59600081303000863
:1000C00013030008130300081303000813030008B8
:1000D00013030008A99C0008130300081303000879
:1000E0001303000813030008130300081303000898
:1000F0001303000813030008130300081303000888
:100100001303000813030008130300081303000877
:100110001303000813030008130300081303000867
:100120001303000813030008130300081303000857
:100130001303000813030008130300081303000847
:100140001303000813030008130300081303000837
:100150001303000813030008130300081303000827
:100160001303000813030008130300081303000817
:100170001303000813030008130300080000000025
:1001800013030008130300081303000813030008F7
:1001900013030008130300081303000813030008E7
:1001A00013030008130300081303000813030008D7
:1001B00013030008130300081303000813030008C7
:1001C00013030008130300080000000013030008D5
:1001D00013030008130300081303000813030008A7
:1001E0001303000813030008130300081303000897
:1001F000130300081303000800F002F800F06DF884
:100200000AA090E8000C82448344AAF10107DA4571
:1002100001D100F062F8AFF2090EBAE80F0013F056
:10022000010F18BFFB1A43F00103184710FB000031
:1002300030FB00000A444FF0000C10F8013B13F0B3
:10024000070408BF10F8014B1D1108BF10F8015B2F
:10025000641E05D010F8016B641E01F8016BF9D122
:1002600013F0080F1EBF10F8014BAD1C0C1B09D179
:100270006D1E58BF01F801CBFAD505E014F8016BEB
:1002800001F8016B6D1EF9D59142D6D3704700007D
:100290000023002400250026103A28BF78C1FBD88F
:1002A000520728BF30C148BF0B607047642900F077
:1002B000A180752900F09E80782900F0D7806329FD
:1002C00000F02B82732900F03082002070471FB5A8
:1002D0000AF04EFF1FBD10B510BD00F059FA1146CF
:1002E000FFF7F5FF09F07AFD00F077FA03B4FFF7A6
:1002F000F2FF03BC09F01CFD09488047094800478C
:10030000FEE7FEE7FEE7FEE7FEE7FEE7FEE7FEE7C5
:10031000FEE7FEE704480549054A064B7047000022
:100320008D960008F901000888050220880B02203C
:100330008807022088070220704700000FB4044994
:1003400010B503AA029800F0F5F910BC5DF814FB93
:100350001000022070B5044685690068C10601D509
:10036000302600E02026C00707D070BDD4E9012167
:1003700030469047206A401C20626D1EF6D570BD45
:1003800070B5044685690078C00707D170BDD4E90F
:10039000012120209047206A401C20626D1EF6D566
:1003A00070BD70B50C460546012A05D02878800638
:1003B00000D5EA69002302E0012305E05B1C9342BB
:1003C00002D2E05C0028F9D1A869E618C01AA86139
:1003D000286A184428622846FFF7BCFF04E0D5E9E4
:1003E000012114F8010B9047B442F8D32846FFF7D7
:1003F000C7FF70BD2DE9F04106460024106875293D
:10040000314616A510D0AFF30080002802DA404232
:1004100013A507E031688A0701D512A502E0490754
:1004200004D511A5012401E0AFF3008000210A22C8
:1004300006F1240709E0B0FBF2FCB0FBF2F302FB8B
:100440001C00303078541846491C0028F3D123464C
:100450002A463046BDE8F04100F0FCB8000000003C
:100460002D0000002B0000002000000070B50446A5
:100470000D4621461068AFF300802188090502D59A
:100480000F4A7A4402E00E4A7A440E32002104F107
:10049000240305E000F00F060009965D5E54491C38
:1004A0000028F7D120780023000704D5702D02D052
:1004B00009B1022311322046BDE8704000F0CAB8ED
:1004C00056F400002DE9F05F894604464FF0000A1B
:1004D000DFF874B1FB44C0F820A02046E1688847EB
:1004E000002874D0252806D0D4E901219047206A3D
:1004F000401C2062F1E700265F462046E1688847FD
:100500002028054607DB312D05D2781910F8200C7C
:1005100008B10643F1E7B00701D526F00406C4F898
:100520001CA00027C4F818A02A2D09D0284609F0DD
:10053000F8FB38B304EB8708303DC8F8185019E0D1
:1005400059F8041B204604EB87029161E168884753
:10055000012F054618D1E069002820DA26F0200690
:100560001DE0D8F8180000EB800005EB40003038A3
:10057000C8F818002046E1688847054609F0D1FB15
:100580000028EED1012F0AD02E2D08D12046E16897
:1005900088477F1C0546022F46F02006C4DBA06971
:1005A000002803DA404246F00106A061F00701D0BE
:1005B00026F010066C2D0BD0682D09D04C2D39D0AB
:1005C0006A2D35D0742D35D07A2D33D016E038E031
:1005D000E1682F4620468847B842054609D16C2F6E
:1005E00026D04FF48060E1680643204688470546E0
:1005F00004E06C2F1AD04FF4807006430DB3A5F1C0
:100600004100192802D8203546F400664A4629469A
:10061000204626604E46FFF749FE80B101280BD0E8
:10062000F61D26F0070000F1080956E74020E4E730
:100630008020D8E70020D6E706F104094DE72846D8
:1006400052E7206ABDE8F09F2CF400007047704725
:10065000704770472DE9F0470D469946924604468B
:1006600000F124080168880604D5E06921F0100132
:10067000216000E00120A84201DD471B00E00027C7
:10068000A1697A1902EB0900081AA0612078C00656
:1006900002D42046FFF75EFE002608E0D4E90121DF
:1006A0001AF806009047206A401C761C20624E45CE
:1006B000F4DB2078C0060AD52046FFF74BFE06E0A3
:1006C000D4E9012130209047206A401C2062381E66
:1006D000A7F10107F4DC07E0D4E9012118F80500CF
:1006E0009047206A401C2062281EA5F10105F3DC1A
:1006F0002046FFF745FE2078000602D50220BDE81F
:10070000F0870120FBE710B5436913B1AFF3008018
:1007100001E0FFF746FE012010BD127800F1240130
:100720000A7000224A700122EDE711684FF0FF3293
:10073000E9E70000074B70B50D467B4400F011F867
:100740000446284600F020F810B14FF0FF3070BD8D
:10075000204670BD8B96000001694A1C0261087832
:10076000704700B58FB0CDE90131002105910549F1
:100770007944CDE9031011466846FFF7A3FE0FB098
:1007800000BD0000E5FFFFFF007B00F08000704728
:10079000754600F02BF8AE4605006946534620F03A
:1007A0000700854618B020B5FFF7B4FDBDE820402E
:1007B0004FF000064FF000074FF000084FF0000B1D
:1007C00021F00701AC46ACE8C009ACE8C009ACE8D0
:1007D000C009ACE8C0098D46704710B50446AFF3B8
:1007E00000802046BDE81040FFF780BD00487047FC
:1007F00028050220FEE7000070B4BFF34F8FBFF35F
:100800006F8F1A4900200860194D296841F40031A2
:100810002960BFF34F8FBFF36F8F16490860BFF396
:100820004F8F081F006843F6FF76134AC0F34E3C13
:10083000C0F3C90406EA4C11204641EA80731360F4
:10084000401EFAD2BCF1010CF4D2BFF34F8F2868DE
:1008500040F480302860BFF34F8FBFF36F8F07489D
:10086000016841F00401016070BC704750EF00E086
:1008700014ED00E084ED00E060EF00E09CEF00E0AC
:1008800070470000B3F5804F30B418BF6FF070416F
:1008900004D040F8221030BC0020704750F82230BD
:1008A000DFF824C08D8903EA0C03D1E900C44CEAC7
:1008B000041C8C688969240244EA05444CEA040C4F
:1008C0004CEA01011943E4E70000F0CF70B4D1F81D
:1008D00000C050F82C201B4BD1E903561A40D1E937
:1008E000014335431C432C434D692C438D692C43F4
:1008F000CD692C430D6A2C434D6A2C438D6A2C43E1
:10090000CD6A2C430D6B2C438D6B2C434D6B2C43CC
:100910002243082B08BF42F0400240F82C200A6B0B
:10092000B2F5801F05D10A684AB1026842F480120C
:1009300002600A681AB10268496B1143016070BC19
:10094000002070478004C0FF00EB820270B453683F
:100950004FF07E46D1E900C48D8903F040434CEA54
:10096000041C8C68240244EA05440D8A4CEA040401
:10097000DFF834C00CEB05552C430D7D06EB056507
:100980002C438D692C4323435360026812F4801F6B
:1009900007D04268098A22F470020CEB015111431E
:1009A000416070BC002070470000F0FF4DF8044D1E
:1009B000D1E901320C681343D1E903C24CEA0202C7
:1009C0001A434B6913438A69012C046843EA020CF9
:1009D000CB690A6A496A08D04CEA03031A431143F7
:1009E0006FF30E04214301600BE024F4F8441A4332
:1009F00021430A43416802606FF30E014CEA010192
:100A000041605DF8044B00207047426942EA4101B1
:100A1000416100207047F8B514460546D1E900024F
:100A20006FF01F0310438A68C96803EB421242EA61
:100A3000412108430090286100F098F90646A86912
:100A400010F0200F0ED0B4F1FF3F07D024B100F01A
:100A50008DF9801BA04201D90320F8BDA86910F0D0
:100A6000200FF0D10020F8BD2DE9F001D1F804C02D
:100A70006FF00F050B682C015B1E05EB0C1C43EAA5
:100A80000C03D1F808C04FEA0428270304EB0C2C10
:100A900043EA0C050B8A2604CC68012A826808EB1D
:100AA000034C8B8A097E07EB035306EB01610DD0E3
:100AB000361306EB04342C4344EA0C0C4CEA0303D3
:100AC000194302F070421143816012E0240322F4C2
:100AD0007042A4F58054234322F470021A43C36881
:100AE00045EA0C0C826003F070434CEA01011943A3
:100AF000C160BDE8F0010020704790F83510022970
:100B000003D08021416501207047052180F8351010
:100B10000068016821F001010160002070470000B9
:100B20002DE9F84FDFF81C920022DFF814820F271E
:100B300009F1040A4FF0010E0B680EFA02F52B4082
:100B4000AB4240F0F780D1F804C0BCF1020F18BFEF
:100B5000BCF1120F12D14FEAD20C00EB8C0CDCF876
:100B600020605407E40E07FA04FB26EA0B06D1F8CE
:100B700010B00BFA04F43443CCF8204006684FEA76
:100B8000420C91F804B003240BF0030B04FA0CF4AC
:100B9000A6430BFA0CFB4BEA060606604E68012ED4
:100BA00018BF022E03D0112E18BF122E11D1866845
:100BB000D1F80CB0A6430BFA0CFB4BEA0606866094
:100BC000466826EA05050E79C6F3001696403543B9
:100BD0004560C56825EA04048D6805FA0CFC4CEAFA
:100BE000040CC0F80CC0D1F804C01CF0805F7CD0AD
:100BF000D8F800C04CF4804CC8F800C0D8F800C049
:100C00000CF4804CCDF800C022F0030C0CF18045B0
:100C100005F59835D5F808C89407240F07FA04F6A7
:100C20002CEA0606A0F1804CBCF5003C48D0A0F1AF
:100C3000804CBCF5013C08BF4FF0010C40D0A0F146
:100C4000804CBCF5023C08BF4FF0020C38D0A0F13C
:100C5000804CBCF5033C08BF4FF0030C30D0A0F132
:100C6000804CBCF5043C08BF4FF0040C28D0A0F128
:100C7000804CBCF5053C08BF4FF0050C20D0A0F11E
:100C8000804CBCF5063C08BF4FF0060C18D0A0F114
:100C9000804CBCF5073C08BF4FF0070C10D0A0F10A
:100CA000804CBCF5083C08BF4FF0080C08D0A0F100
:100CB000804CBCF5093C0CBF4FF0090C4FF00A0CFE
:100CC0000CFA04FC4CEA060CC5F808C8D9F800C0B8
:100CD0004C682CEA030C14F4803F18BF4CEA030C58
:100CE000C9F800C0DAF800C000E023E04C682CEA44
:100CF000030C14F4003F18BF4CEA030CCAF800C000
:100D0000114CD4F800C04D682CEA030C15F4801F78
:100D100018BF4CEA030CC4F800C00C4CD4F800C057
:100D20004D682CEA030C15F4001F18BF4CEA030CA5
:100D3000C4F800C0521C102AFFF4FEAEBDE8F88FC4
:100D400044380240003C0140083C01400C3C01405A
:100D50000069084018BF0120704742695140416155
:100D60007047002A08BF0904816170470148006884
:100D7000704700000400022002480168491C01601D
:100D80007047000004000220074810B5016841F4D4
:100D900000710160052000F009FA0F2000F006F84C
:100DA00000F0C4F9002010BD003C024010B504461C
:100DB00007484FF47A720068B0FBF2F001F04EFC85
:100DC00000222146501E00F0BFF9002010BD000097
:100DD000000002202DE9F05F044690F8A0000128F1
:100DE00004BF0220BDE8F09F0125022084F8A05036
:100DF00084F8A10002EB820000EBC20004EB800348
:100E0000B1E8C11F3833A3E8C11F91E8C1112039EF
:100E100083E8C111204607F097FF2068456284F8F7
:100E2000A150002084F8A000BDE8F09F002804BF76
:100E30000120704770B5044690F8A100002520B944
:100E4000204684F8A05000F077F8022084F8A10032
:100E50002068816921F070418161D4E90101084372
:100E6000D4E903121143014320688269114381616F
:100E7000206882682F490A408260A08A02042068A4
:100E80008368D4F818C043EA0C031A4382602068D0
:100E9000C2680A40C260A08B02042068C368D4F80C
:100EA00020C043EA0C031A43C260206802690A406A
:100EB0000261A08C020420680369D4F828C043EAC8
:100EC0000C031A4302612068426911404161A08D00
:100ED000010420684269236B1A431143416194F86D
:100EE0003500020294F8360001042068C36A03F05A
:100EF0007F43C3622068C36A114394F834C043EA55
:100F00000C031943C1622068416B41F00401416345
:100F10002068416B41F0020141632068816941F022
:100F200001018161C4F8A450012084F8A1000020CF
:100F300070BD000000F800F0354810B586B00168BB
:100F400041F080610160006800F0806005903148E8
:100F5000016841F400010160016801F4000105919C
:100F6000016841F002010160016801F00201059190
:100F7000016841F020010160016801F02001059144
:100F8000016841F040010160016801F040010591F4
:100F9000016841F080010160016801F08001059164
:100FA000016841F48071016000680324694600F41F
:100FB000807005902020009001200190CDE902046E
:100FC0001548FFF7ADFD4FF48060009002200190BE
:100FD00000206946CDE902040E2004900F48FFF777
:100FE0009FFD4FF40C6000900D486946FFF798FD97
:100FF0004FF47E4000900B486946FFF791FD40F2A8
:10100000F760009008486946FFF78AFD06B010BDFA
:1010100044380240303802400004024000140240CC
:1010200000180240001C02400020024070B5044637
:1010300090F8A0008C46012804BF022070BD012555
:10104000022084F8A05084F8A10003EB830000EB99
:10105000C30004EB800000F13801C0F838C0006E16
:101060006044C1E90102C86A10441A46C8602046BB
:1010700007F06AFE2068456284F8A150002084F8D9
:10108000A00070BD70B5044690F8A0008C46012801
:1010900004BF022070BD0125022084F8A05084F80E
:1010A000A10003EB830000EBC300002604EB8000EB
:1010B00000F138012046C1E9006CC1E90262C1E9D2
:1010C0000AC21A4607F040FE2068456284F8A15023
:1010D000002084F8A06070BD134A41781160111D92
:1010E00003780A1D002B04BF002008601AD0436853
:1010F0000B60017BC37A090741EA0361837A41EA05
:10110000C341437B41EA8341837B41EA4341C37B43
:1011100041EA0341437A41EA0321037A007841EA34
:10112000430108431060704798ED00E070470122CA
:1011300000F01F0102FA01F14009800000F1E020F7
:10114000C0F8001170470000174B4DF8044D1B68A4
:10115000C3F30223C3F1070CBCF1040F88BF4FF0A7
:10116000040C1C1D072C34BF0023DB1E012404FAD1
:101170000CFCACF1010C0CEA0101994004FA03F3F8
:101180005B1E1A40114300284FEA0111B8BF00F05E
:101190000F0000F1E020B4BF80F8141D80F80014A7
:1011A0005DF8044B704700000CED00E0074A00F0CA
:1011B000070011684FF6FF03194041EA002040F094
:1011C000FD7040F080601060704700000CED00E0A2
:1011D0001C4838B5016841F08051016000681A4C24
:1011E00000F080500090206840F480302060FFF7CD
:1011F000BDFD0546606810F4803F09D1FFF7B6FDDC
:10120000401BB0F57A7F14D8606810F4803FF5D0A9
:10121000206840F400302060FFF7A8FD05466068B4
:1012200010F4003F0BD1FFF7A1FD401BB0F57A7F12
:1012300001D9032038BD606810F4003FF3D00020CE
:1012400038BD000040380240007000402DE9F84FE2
:1012500004460078DFF82C944FF0000B10F0010FDB
:101260005D4610D0D9F8000020F40000C9F8000055
:10127000D9F80000616B0843C9F80000606B0028D2
:1012800008BF4FF0010B2068FF4E10F4002F0FD065
:101290003068E16B20F4401008433060E06BB0F53B
:1012A000801F08BF4FF0010B02D0002808BF0125A6
:1012B000206810F4801F0FD03068216C20F44000AB
:1012C00008433060206CB0F5800F08BF4FF0010B71
:1012D00002D0002808BF0125206810F0807F18BFC9
:1012E0004FF0010B10F0200F71D0E848016841F079
:1012F000805101600068DFF8988300F08050009012
:10130000D8F8000040F48070C8F80000FFF72EFD08
:101310000746D8F8000010F4807F0AD1FFF726FDB9
:10132000C01B642800F23083D8F8000010F4807FDE
:10133000F4D0DFF86083D8F8000010F4407031D0AA
:10134000218E01F4407181422CD0D8F80000D8F8E9
:10135000001020F4407041F48031C8F80010D8F833
:10136000001021F48031C8F80010C8F80000D8F847
:10137000000010F0010F15D0FFF7F8FC0746D8F871
:10138000000010F0020F08BF41F2883A0AD1FFF7BF
:10139000EDFCC01B504500F2F782D8F8000010F0B9
:1013A000020FF4D0206B4FF4407181431CBFD9F879
:1013B000000020F4F81000F0EE80C9F80000D8F822
:1013C0000000218EC1F30B010843C8F8000020780B
:1013D00010F0100F07D0306820F080703060306857
:1013E000A16B08433060208810F4804FAA4805D0D4
:1013F0000168626E21F4403111430160218811F4CB
:10140000004F05D00168A26E21F440211143016014
:10141000216811F4803F05D00168E26E21F440118B
:1014200011430160216811F4003F05D00168226F6B
:1014300021F4400111430160217811F0400F05D0E3
:101440000168626C21F0030111430160217811F001
:10145000800F05D00168A26C21F00C0111430160DE
:10146000218811F4807F05D00168E26C21F0300101
:1014700011430160218811F4007F05D00168226DBD
:1014800021F0C00111430160218811F4806F05D063
:101490000168626D21F4407111430160218811F4EB
:1014A000006F05D00168A26D21F440611143016015
:1014B000218811F4805F05D00168E26D21F440516C
:1014C00011430160218811F4005F05D00168226E8C
:1014D00021F4404111430160216811F4800F05D0CF
:1014E0000168A26F21F0806111430160216811F44D
:1014F000001F0AD00168E26F21F000611143016012
:10150000E16FB1F1006F08BF0125216811F0080FEC
:1015100018BF012511F4802F05D00168626F21F0FA
:10152000407111430160216811F4000F06D0016879
:10153000D4F8802021F0805111430160216811F01E
:10154000806F06D00168D4F8842021F00051114347
:101550000160206810F0006F06D03068D4F8881061
:1015600020F0007008433060206810F0805F06D0E3
:101570003068D4F88C1020F0806008433060BBF1F4
:10158000000F47F6C07A4FF440374FF070684FF0C5
:10159000E0490ED109E0D9F8001020F4407020F0A5
:1015A000704021F4F811084307E72068B0F1007F8C
:1015B00067D13A48006820F0806138480160FFF741
:1015C000D5FB83463548006810F0006F0BD0FFF75D
:1015D000CDFBA0EB0B00642800F2D6812F480068F9
:1015E00010F0006FF3D1207810F0010F2C482DD0AF
:1015F000616B59BB016897FAA7F201F44031B2FA66
:1016000082F2D140026898FAA8F39AFAAAFC02F092
:101610007062B3FA83F3BCFA8CFCDA40636803FAB5
:101620000CF397FAA7FCBCFA8CFC01FA0CF11943F5
:1016300098FAA8F3B3FA83F39A4099FAA9F30A4304
:10164000A168B3FA83F3994011430160216811F452
:10165000002F03D0E26BB2F5801F06D011F4801F7B
:1016600049D0216CB1F5800F45D1016897FAA7F2F6
:1016700001F44031B2FA82F2D140026802F0E04255
:1016800010E0A5E0083802408C38024040380240A3
:10169000007000407038024090380240003802402C
:1016A0008438024099FAA9F39AFAAAFCB3FA83F3B0
:1016B000BCFA8CFCDA40636803FA0CF397FAA7FCD7
:1016C000BCFA8CFC01FA0CF198FAA8FC1943E36807
:1016D000BCFA8CFC03FA0CF3194399FAA9F3B3FA98
:1016E00083F39A40114301603168626A21F01F015F
:1016F000521E11433160216811F0807F2ED00168A5
:1017000098FAA8F201F07061B2FA82F2D140026850
:1017100099FAA9F39AFAAAFC02F0E042B3FA83F329
:10172000BCFA8CFCDA40636897FAA7FBBBFA8BFB28
:1017300003FA0CF3D4F810C00CFA0BFC43EA0C03C8
:1017400098FAA8FCBCFA8CFC01FA0CF1194399FA3E
:10175000A9F3B3FA83F39A4011430160216811F0B1
:10176000007F1CD09AFAAAF2616897FAA7F3B2FA3E
:1017700082F2B3FA83F301FA02F22169994098FAEE
:10178000A8F31143E268B3FA83F39A4099FAA9F3F4
:101790001143A268B3FA83F39A40114301607F4872
:1017A000006840F080617D480160FFF7DFFA834602
:1017B0007A48006810F0006F0AD1FFF7D7FAA0EB63
:1017C0000B0064287DD87548006810F0006FF4D0D5
:1017D000002D77D0714D286820F080502860FFF7E9
:1017E000C5FA8346286810F0005F09D0FFF7BEFAFB
:1017F000A0EB0B00642864D8286810F0005FF5D1D6
:101800002068DFF89CC110F4002F01D0E16B21B1FA
:1018100010F4801F38D0206CB0BBDCF8000097FAC1
:10182000A7F100F44030B1FA81F1C840DCF80010B3
:1018300099FAA9F29AFAAAF301F0E041B2FA82F217
:10184000B3FA83F3D14062699A4097FAA7F3B3FAE7
:1018500083F3984098FAA8F31043A269B3FA83F38C
:101860009A40104399FAA9F2B2FA82F291400843E1
:10187000CCF8000030686FF0FF02A16A20F4F85045
:1018800002EB012108433060206810F4001F34D0BF
:10189000E06FB0F1006F30D1DCF8000098FAA8F1E9
:1018A00000F07060B1FA81F1C840DCF8001099FADC
:1018B000A9F29AFAAAF301F0E041B2FA82F2D14019
:1018C00001E061E067E06269B3FA83F397FAA7FB8E
:1018D0009A40236ABBFA8BFB03FA0BF31A4398FA7C
:1018E000A8F3B3FA83F39840104399FAA9F2B2FA35
:1018F00082F291400843CCF80000207810F0080FE5
:1019000032D0DCF8000098FAA8F100F07060B1FA6B
:1019100081F1C840DCF8001097FAA7F29AFAAAF30E
:1019200001F44031B2FA82F2B3FA83F3D140626932
:101930009A4097FAA7F3B3FA83F39940114398FAC0
:10194000A8F2B2FA82F2904099FAA9F20843E1694A
:10195000B2FA82F291400843CCF800003068E16AA4
:1019600020F4403008433060286840F08050286000
:10197000FFF7FCF90446286810F0005F0BD1FFF771
:10198000F5F9001B642802D90320BDE8F88F286808
:1019900010F0005FF3D00020BDE8F88F003802405F
:1019A000883802402DE9F047DFF8688104460D468B
:1019B000D8F8000000F00F00A8420CD2D8F80000C0
:1019C00020F00F002843C8F80000D8F8000000F00D
:1019D0000F00A84270D120784F4F10F0020F05D0B1
:1019E0003868A16820F0F00008433860207810F0D3
:1019F000010F4ED060684949012820D009680228AB
:101A000022D011F0020F57D0396821F003010843AA
:101A10003860FFF7ABF90646606841F28839012863
:101A200016D00228386800F00C0021D0F8B1FFF77A
:101A30009DF9801B484528D90320BDE8F087096837
:101A400011F4003FE0D137E011F0007FDCD133E04A
:101A5000386800F00C0004281BD0FFF787F9801BC2
:101A60004845E9D8386800F00C000428F5D110E0AA
:101A700008280ED0FFF77AF9801B4845DCD8386873
:101A800000F00C000828F5D103E0386810F00C0FC6
:101A9000CDD1D8F8000000F00F00A8420FD9D8F837
:101AA000000020F00F002843C8F80000D8F800001C
:101AB00000F00F00A84202D00120BDE8F087207896
:101AC00010F0040F05D03868E16820F4E0500843B6
:101AD0003860207810F0080F06D03868216920F4AB
:101AE000604040EAC100386000F04EF83968F022EA
:101AF00092FAA2F201F0F001B2FA82F2D140084A61
:101B0000515CC840074908600F20FFF74FF90020DB
:101B1000BDE8F087003C024008380240003802402F
:101B20007AB10008000002200848094900680968E5
:101B30004FF4E05292FAA2F201F4E051B2FA82F2CA
:101B4000D140044A515CC8407047000000000220A8
:101B5000083802408AB10008084809490068096845
:101B60004FF4604292FAA2F201F46041B2FA82F2BA
:101B7000D140044A515CC840704700000000022078
:101B8000083802408AB100082148006810F00C01B2
:101B9000204808BF7047DFF880C0042904BF6046B2
:101BA0007047082918BF70474DF8044D1B4A11684B
:101BB000136801F03F0113F4800F47F6C0730BD098
:101BC000BCFBF1F01168194093FAA3F3B3FA83F365
:101BD000D94000FB01F00AE0B0FBF1F011681940B8
:101BE00093FAA3F3B3FA83F3D94000FB01F0116831
:101BF0004FF440325DF8044B92FAA2F201F4403106
:101C0000B2FA82F2D140491C4900B0FBF1F07047B2
:101C1000083802400024F40040787D010438024076
:101C20002DE9F84FDFF8A88304460078A8F10407EF
:101C300010F0010FA7F104055AD0D8F8000000F009
:101C40000C00042809D0D8F8000000F00C00082887
:101C50000CD1386810F4800F08D0286810F4003FC9
:101C600046D06068002800F0AF8141E06068B0F5C0
:101C7000803F04BF286840F480300AD010B1B0F52E
:101C8000A02F11D0286820F480302860286820F424
:101C9000802028606068D0B1FFF768F806462868A1
:101CA00010F4003F08D023E0286840F4802028602A
:101CB000286840F48030ECE7FFF758F8801B642870
:101CC00000F22581286810F4003FF5D010E0FFF7FE
:101CD0004DF80646286810F4003F09D0FFF746F893
:101CE000801B642800F21381286810F4003FF5D1AE
:101CF000207810F0020F50D0D8F800004FF0F8090B
:101D000010F00C0F18D0D8F8000000F00C000828D4
:101D100004BF386810F4800F0ED0E06800282868EF
:101D200028D040F001002860FFF720F80646286818
:101D300010F0020F09D011E0286810F0020F1CBF4C
:101D4000E06801280AD000F03FB9FFF70FF8801BC8
:101D500002287DD8286810F0020FF6D0286899FA7A
:101D6000A9F22169B2FA82F220F0F800914008430A
:101D7000286012E020F001002860FEF7F7FF064619
:101D8000286810F0020F08D0FEF7F0FF801B022831
:101D90005ED8286810F0020FF6D1207810F0080FF6
:101DA00033D0DFF8309260690028D9F8000016D0EF
:101DB00040F00100C9F80000FEF7D8FF0646D9F848
:101DC000000010F0020F20D1FEF7D0FF801B022888
:101DD0003ED8D9F8000010F0020FF5D015E020F041
:101DE0000100C9F80000FEF7C1FF0646D9F800005F
:101DF00010F0020F09D0FEF7B9FF801B022827D888
:101E0000D9F8000010F0020FF5D1207810F0040F7F
:101E100063D07148016841F08051016000686F4EE5
:101E200000F080500090306840F480703060FEF721
:101E30009DFF8146306810F4807F0BD1FEF796FF3E
:101E4000A0EB0900642862D8306810F4807F00E0BD
:101E50005DE0F3D0A068624E012804BF306840F016
:101E6000010009D008B1052813D0306820F0010026
:101E70003060306820F004003060A06841F2883A99
:101E8000D0B1FEF773FF8146306810F0020F08D022
:101E900023E0306840F004003060306840F001001A
:101EA000EAE7FEF763FFA0EB090050452FD8306842
:101EB00010F0020FF5D010E0FEF758FF81463068B1
:101EC00010F0020F09D0FEF751FFA0EB09005045BA
:101ED0001DD8306810F0020FF5D1A069E8B3D8F82A
:101EE000001001F00C0108296ED00228286820F0AB
:101EF000807028600ED0FEF739FF0446286810F085
:101F0000007F5ED0FEF732FF001B022855D9032068
:101F1000BDE8F88FFEF72AFF0646286810F0007F1C
:101F200008D0FEF723FF801B0228F0D8286810F0A5
:101F3000007FF6D1D4E9070147F6C0724FF0FF33B6
:101F400092FAA2F20843616AB2FA82F29140A26A5E
:101F500003EB52024FF4403300E032E093FAA3F374
:101F6000B3FA83F39A4011434FF070620843E16A79
:101F700092FAA2F2B2FA82F291404FF0E0420843A4
:101F8000216B92FAA2F2B2FA82F2914008433860D1
:101F9000286840F080702860FEF7E8FE0446286854
:101FA00010F0007F0DD1FEF7E1FE001B0228AED835
:101FB000286810F0007FF6D003E0286810F0007F5A
:101FC000A0D10020BDE8F88F0120BDE8F88F000007
:101FD0000838024074380240403802400070004027
:101FE00070380240002804BF0120704770B50446D5
:101FF00090F82C000D4628B9002084F82D002046CA
:1020000000F012F8022084F82C002068211DFEF751
:10201000CDFCD4E900022946FEF726FD012084F814
:102020002C00002070BD000030484DF804ED87B052
:10203000016841F001010160006800F001000590B5
:102040002B48016841F004010160016801F00401BE
:102050000591016841F008010160016801F0080183
:102060000591016841F010010160016801F0100163
:102070000591016841F020010160016801F0200133
:102080000591016841F0400101600068694600F077
:10209000400005900D200090022001900120029048
:1020A000032003900C2004901248FEF739FD4CF2F7
:1020B0000370009010486946FEF732FD4FF68370BA
:1020C00000900E486946FEF72BFD4FF63F0000904A
:1020D0000B486946FEF724FD48F237100090094886
:1020E0006946FEF71DFD07B05DF804FB3838024075
:1020F0003038024000080240000C0240001002404C
:10210000001402400018024010B5044690F82C005C
:10211000022808BF10BD022084F82C002068FEF7BA
:1021200074FC012084F82C00002010BD70B504461A
:1021300090F82C000D46022808BF70BD022084F8DC
:102140002C002068FEF767FC286802280CBF0520D9
:10215000012084F82C00002070BD002804BF01205D
:1021600070472DE9F04102270446006B012620B19B
:1021700094F85D00002560B906E0E068B0F5E06F16
:102180008CBF27632663F3E7204684F85C5000F099
:1021900047F884F85D702068016821F04001016013
:1021A000E168B1F5E06F8CBF00204FF48050B1F5CD
:1021B000706F1CBFB1F5E06FA562D4E90112114345
:1021C000D4E904231A431143228B02F40072114311
:1021D000E2691143226A1143A26A11432268116025
:1021E000216B022904D121680A6842F400620A6066
:1021F000626B4FF0040C616AA3691143E2680CEA58
:1022000013431A4311430843216848602168E06A78
:102210000861256684F85D600020BDE8F08100005B
:1022200012484DF804ED87B0016841F002010160E9
:10223000006800F0020005900D48016841F48041FB
:1022400001600068012100F4804005904FF4604077
:1022500000900220CDE90101039005200490694619
:102260000448FEF75DFC07B05DF804FB303802401F
:1022700040380240000402402DE9F84F994692464A
:102280008B4604460A9FFEF771FD804694F85C0079
:1022900001250026012804BF0220BDE8F88F012097
:1022A00084F85C0094F85D00012818BF022640F015
:1022B0005681BBF1000F1CBFBAF1000FB9F1000F3E
:1022C00000F04C81052084F85D0000202066C4F8F1
:1022D00040A0A4F84690A4F84490C4F838B0A4F8FC
:1022E0003E90A4F83C90A06AB0F5005F0AD1206847
:1022F00001684DF6FF72114001602068016841F4E9
:1023000000510160E068B0F5E06F9CBFB4F8460092
:102310000128206841688CBF21F4805141F480512C
:1023200041602068016811F0400F03D1016841F05D
:1023300040010160E068B0F5E06F4BD800F0C0B834
:10234000002D18BF002828D02068816811F0020FE6
:1023500023D0A16B0988C1604FF00005A06B801CE1
:10236000A063E08F401E0004000CE08704BFA06A59
:10237000B0F5005F11D12068016811F0040F07D19A
:10238000416811F0080F03D0016841F40071016049
:102390002068016841F480510160B4F8460080B1C2
:1023A0002068816811F0010F0BD0C068216C088093
:1023B000206C801C2064B4F84600401EA4F846003F
:1023C0000125B7F1FF3F05D0FEF7D0FCA0EB0800D8
:1023D000B84273D2E08F002804BFB4F84610002939
:1023E000AED1A06AB0F5005F73D0A0E0002D18BF99
:1023F000002931D02068826812F0020F2CD0012908
:10240000A16B08D90988C160A06B801CA063E08F14
:10241000801EE08707E04A1CA26309780173E08F01
:10242000401EE08700250004000C04BFA06AB0F540
:10243000005F11D12068016811F0040F07D14168D5
:1024400011F0080F03D0016841F4007101602068A9
:10245000016841F480510160B4F8461029B3206846
:10246000826812F0010F20D0012913D9C068216CB5
:102470000880206C801C2064B4F84600801E80B266
:10248000A4F84600012810D82068416841F4805122
:1024900041600AE0017B206C421C22640170B4F8A8
:1024A0004600401EA4F846000125B7F1FF3F07D0C3
:1024B000FEF75CFCA0EB0800B84201D303264EE017
:1024C000E18F002904BFB4F8460000288ED188E7C8
:1024D000FFE701223B461146204607F038F8D0B905
:1024E000E068B0F5706F206808D0007BADF80000A0
:1024F000BDF80000206B022806D018E0C068ADF8D7
:102500000000BDF8000012E001223B4611462046C3
:1025100007F01DF828B1206E40F002002066032667
:102520001DE02068007BADF80000BDF800002068C9
:10253000816811F0100F07D0216E41F00201216671
:102540004FF6EF71816001263946204606F086FF7E
:1025500000281CBF20202066206E00B1012601202B
:1025600084F85D00002084F85C003046BDE8F88FF8
:10257000002804BF0120704770B5044690F845005C
:1025800015460E4628B9002084F84400204600F085
:102590001BF8206804F10801FEF798F9A26831469B
:1025A0002068FEF7D1F9E36A2946D4E90102FEF773
:1025B00069F9A168206850F8212042F0010240F832
:1025C0002120002070BD00001A484DF804ED87B0AE
:1025D000016841F001010160006800F00100059010
:1025E0001548016841F008010160016801F0080127
:1025F0000591016841F0100101600068694600F032
:10260000100005904EF2B37000900220019001205E
:102610000290032003900C2004900848FEF780FAF3
:102620004FF68070009006486946FEF779FA07B0C9
:102630005DF804FB3838024030380240000C02409C
:10264000001002404FF0E021042808690CBF40F060
:10265000040020F00400086170470000401EB0F143
:10266000807F24BF012070474FF0E0214861F020B7
:10267000044A82F8140D00208861072008610020B8
:10268000704700000FE000E0002804BF0120704701
:1026900010B5044690F83900002804BF204600F029
:1026A0000CF8022084F839002068211D07F034F866
:1026B000012084F83900002010BD70470168CA6805
:1026C00042F00102CA600068016841F00101016046
:1026D000002070477047000070B501680446C86963
:1026E0000A688B6810F00F0F4FF0200551D040F2B0
:1026F000011C13EA0C0F7DD010F0010F18BF12F46B
:10270000807F07D04FF0010CC1F820C0E16E41F08E
:102710000101E16610F0020F18BF13F0010F08D09D
:10272000D4F800C00221CCF82010E16E41F0040181
:10273000E16610F0040F18BF13F0010F08D0D4F8B1
:1027400000C00421CCF82010E16E41F00201E166E6
:1027500010F0080F0CD002F0200103F00103194320
:1027600006D0236808211962E16E41F00801E16694
:10277000E16E002908BF70BD10F0200F1EBF12F0DF
:10278000200F204607F0D1F8E06E10F0080F10D1AE
:102790000AE010F0200F18BF12F0200F39D02046A9
:1027A000BDE8704007F0C1B82068806810F0400FA5
:1027B00029D02068016821F4907101602068816847
:1027C00021F00101816084F86A502068816811F06D
:1027D000400F14D0816821F040018160606E70B1BB
:1027E0002D490165606EFEF788F9002808BF70BDAD
:1027F000606E00E00DE0016DBDE8704008472046C6
:10280000FFF768FF70BD2046FFF764FF0020E06619
:1028100070BD10F0800F18BF12F0800F2CD094F80C
:102820006900212818BF70BDB4F8520090B1A068AB
:10283000B0F5805F04BF20690028E06C14D0411C13
:10284000E164216800788862B4F85200401EA4F860
:10285000520070BD086820F08000086020680168A0
:1028600041F04001016070BD0088C0F3080088623B
:10287000E06C801CE064E7E710F0400F14BF12F03A
:10288000400F70BD20460A6822F040020A6084F8BA
:10289000695000F0FCF870BD17990008002804BFCB
:1028A0000120704710B5044690F8690028B900204F
:1028B00084F86800204600F029F8242084F8690094
:1028C0002068016821F001010160204607F06CF8E2
:1028D000012808BF10BD606A00281CBF204606F012
:1028E0007DFF2068416821F4904141602068816843
:1028F00021F02A0181602068016841F00101016036
:102900002046BDE8104006F0D6BF000030B50446B2
:10291000006887B0A0F18041B1F588311CBF07B0D5
:1029200030BD1B48016841F001010160006800F002
:10293000010005901748016841F01001016000682E
:102940000121154D00F0100005904FF4007000902B
:102950000220CDE901010390072069460490284632
:10296000FEF7DEF82815694600902846FEF7D8F8ED
:102970002068016841F0200101602520FEF7D7FBA7
:10298000032225201146FEF7DFFB07B030BD000013
:102990003038024044380240000002402DE9F84F30
:1029A000044690F86A00984616460D4620286AD1DB
:1029B000002D12BF002E0120BDE8F88F94F86800AA
:1029C000012860D0012084F868004FF00009C4F8A5
:1029D0006C90222084F86A00FEF7C8F9A4F85860C9
:1029E0008246A4F85A60FF21A068B0F5805F05D048
:1029F0007F2250B1B0F1805F0CD012E02069002836
:102A000008BF40F2FF1002D109E02069E8B9A4F83C
:102A10005C1006E02069002818BF3F2015D0A4F8FC
:102A20005C00B4F85C60F7B2B4F85A000022534678
:102A3000401EA4F85A0020212046CDF8008007F05F
:102A4000F9F828B10320BDE8F88FA4F85C20E8E786
:102A5000A068B0F5805F04BF206900282068406A44
:102A600019BF384005F8010B304025F8020BB4F8C7
:102A70005A000028D8D1202084F86A00002084F869
:102A80006890BDE8F88F0220BDE8F88F7047704766
:102A9000FEE700001B4870B586B0016841F00101F7
:102AA0000160016801F001010591016841F0040134
:102AB0000160016801F004010591016841F08001A5
:102AC0000160006803250026694600F0800005903B
:102AD00002200124CDE902050B48CDE90046FEF7AE
:102AE0001FF860036946CDE900060848CDE90245B4
:102AF000FEF716F80C20009005486946FEF710F81E
:102B000006B070BD303802400000024000080240AC
:102B1000001C02402DE9F041344C0126344F0128BD
:102B2000DFF8D080344D08BF267001D02078A8B1DE
:102B300008212846FEF70CF9B8B104212846FEF713
:102B400007F990B14FF400513846FEF701F960B132
:102B500001214046FEF7FCF8012806D0082128464E
:102B6000FEF7F6F801283ED12AE00A2007F0ECF83B
:102B70000020207008212846FEF7EAF8002804BF4C
:102B80000120BDE8F08104212846FEF7E1F8002885
:102B900004BF0220BDE8F0814FF400513846FEF733
:102BA000D7F8002804BF0320BDE8F081012140468A
:102BB000FEF7CEF8012804BF0420BDE8F08112E042
:102BC00004212846FEF7C4F801280CD141033846F9
:102BD000FEF7BEF8012806D101214046FEF7B8F8FD
:102BE000002808BF26700020BDE8F08114000220F4
:102BF0000008024000000240001C02402DE9F041A4
:102C0000104E0746104800243188006820B138462D
:102C1000BDE8F04105F020BE708800FB01F5002101
:102C2000084605F027FB094930890880002D86BF3A
:102C3000B8B20749BDE8F0810880641CA542FBD802
:102C4000BDE8F081B003022068040220FEFF0760A7
:102C5000000008602DE9F05F3D4C3E4DA0712968F1
:102C600039B105F009FEE88A2080288B6080BDE834
:102C7000F09F37492C232B254FF0F0094FF4305E9D
:102C800049F2413A4FF448764FF02A0C89884FF4C4
:102C9000A0784FF4F07245F2105B45F2103760B146
:102CA000A4F800805145A4F8029018BFB9422ED173
:102CB0002381A4F80AC0A58140E0A4F80090514502
:102CC000A4F8028018BFB94209D12381B942A4F8FF
:102CD0000AC0A58104BFA4F80080628033E0594592
:102CE0000AD1A4F808E04FF4285060814FF42C502A
:102CF000A0812280668026E0A1F5C850633822D1E9
:102D000023816581A4F80CC0228066801BE05945B0
:102D10000AD1A4F808E04FF4285060814FF42C50F9
:102D2000A0812680628009E0A1F5C850633805D1F2
:102D30002381A4F80AC0A58126806280B94204BF1D
:102D40002280A4F802800020BDE8F05F05F004B9FD
:102D5000B0030220680402202DE9F04F00268246CD
:102D60005F1A3546A2EB00088946B8F1000F83B020
:102D7000C8BF012007DC0FBF00204FF0FF30C8F1B3
:102D80000008019000D10190002FC8BF012006DC8F
:102D90000FBF00204FF0FF307F42009000D1009025
:102DA000B845CCBF44463C464FF0000B601C52BFB8
:102DB000029003B0BDE8F08F1FFA8AF315481FFA9E
:102DC00089F1006828B114480268184605F068FDCA
:102DD0000AE0184605F04EFA1048018910480180B3
:102DE0000D481049008808804644A6423D4402DD53
:102DF0000198361B8244A54202DD00982D1B8144B8
:102E00000BF101001FFA80FB02988345D4DD03B06B
:102E1000BDE8F08F6804022018000220B0030220F1
:102E2000FEFF0760000008602DE9F0411C461546D2
:102E30000E4607460B46FFF78FFF3A4623463146BC
:102E40001046FFF789FF23462A4619463846FFF702
:102E500083FF2A46234631461046BDE8F041FFF77E
:102E60007BBF00002DE9F04F0024814615004FF094
:102E7000030085B08846A0EB450644BF05B0BDE819
:102E8000F08F6B4FDFF8ACA1DFF8ACB109EB0400B9
:102E900083B20090A8EB0500039081B267480068F8
:102EA00020B13A68184605F0FBFC09E0184605F029
:102EB000E1F9BAF80800ABF80000614938880880E9
:102EC00009EB050083B20190A8EB0400029081B2E7
:102ED0005A48006820B13A68184605F0E1FC09E05C
:102EE000184605F0C7F9BAF80800ABF800005449D5
:102EF00038880880019883B208EB0400019081B201
:102F00004E48006820B13A68184605F0C9FC09E04F
:102F1000184605F0AFF9BAF80800ABF800004849C8
:102F200038880880009883B208EB0500049081B2CD
:102F30004248006820B13A68184605F0B1FC09E043
:102F4000184605F097F9BAF80800ABF800003C49BC
:102F500038880880A9EB0400009083B2049881B2FD
:102F60003648006820B13A68184605F099FC09E037
:102F7000184605F07FF9BAF80800ABF800003049B0
:102F800038880880A9EB0500049083B2019881B2CB
:102F90002A48006820B13A68184605F081FC09E02B
:102FA000184605F067F9BAF80800ABF800002449A4
:102FB00038880880009883B2039881B21F4800685F
:102FC00020B13A68184605F06BFC09E0184605F098
:102FD00051F9BAF80800ABF80000194938880880A0
:102FE000164A0498029980B2126889B21AB13A68F6
:102FF00005F056FC08E005F03DF9BAF80800ABF81A
:1030000000000F4938880880641C002EBCBF06EB06
:103010008400861D05DB601B6D1E06EB800000F141
:103020000A06AC427FF732AF05B0BDE8F08F000072
:1030300018000220B0030220FEFF0760680402208F
:10304000000008602DE9F84F934B1B681BB1BDE8E9
:10305000F84F05F025BCDFF844A20C0ADFF84092D7
:10306000CBB2D446070ABAF8045009F10206BCF8FC
:103070000C1000F0FF08BCF80AC0A5F5134BBBF11B
:10308000410B1CBFA5F5A04BBBF5447B09D0A5F5B2
:10309000A04BBBF5A26B3DD0A5F5C857633F7CD0D4
:1030A000F2E0ADF800C0BDF80000ADF80000BDF8DA
:1030B0000000A9F80000ADF80070BDF80000ADF800
:1030C0000000BDF800003080ADF80080BDF80000C1
:1030D000ADF80000BDF800003080ADF80010BDF87C
:1030E0000000ADF80000BDF80000A9F80000ADF840
:1030F0000040BDF80000ADF80000BDF800003080D1
:10310000ADF80030BDF80000ADF80000BDF80000DB
:103110003080B9E0ADF800C0BDF80000ADF80000A7
:10312000BDF80000A9F80000ADF80070BDF800007F
:10313000ADF80000BDF8000030800CF10100ADF8E2
:103140000000BDF80000ADF80000BDF80000A9F8CF
:103150000000ADF80080BDF80000ADF80000BDF83B
:1031600000003080ADF80010BDF80000ADF80000A0
:10317000BDF80000A9F80000ADF80040BDF800005F
:10318000ADF80000BDF800003080481CADF800002C
:10319000BDF80000ADF8000000E00DE0BDF8000053
:1031A000A9F80000ADF80030BDF80000ADF800004F
:1031B000BDF80000308067E09AF8065025B9BAF8EB
:1031C0000050281A401E80B2ADF800C0BDF800C003
:1031D000ADF800C0BDF800C0A9F800C04FEA102C3F
:1031E000ADF800C0BDF80050ADF80050BDF800507B
:1031F0003580C0B2ADF80000BDF80050ADF8005009
:10320000BDF800503580ADF800C0BDF800C0ADF885
:1032100000C0BDF800C0A6F800C0ADF80000BDF8C1
:103220000000ADF80000BDF800003080ADF80010DF
:10323000BDF80000ADF80000BDF80000A9F80000DE
:10324000ADF80040BDF80000ADF80000BDF800008A
:103250003080ADF80030BDF80000ADF80000BDF8DA
:1032600000003080ADF80040BDF80000ADF800006F
:10327000BDF800003080ADF80030BDF80000ADF8BA
:103280000000BDF800003080BAF80800A9F800007E
:103290003280BDE8F88F000068040220B0030220ED
:1032A000FEFF07602DE9F84F1F46194B83460C4679
:1032B0000A981B6833B13B460090584605F012FB54
:1032C000BDE8F88FA2EB0B01491C8DB2BC4288BF50
:1032D000BDE8F88FDFF83C9086B2DFF83CA00AF139
:1032E00002082146584604F0C5FFB9F80800AAF8BC
:1032F00000000020002D05D9A8F80060401C80B215
:103300008542F9D8601C84B2BC42EAD9BDE8F88F86
:1033100068040220B0030220FEFF07602DE9F04F91
:1033200095B005F08DFCFE4945F2105A4FF00508A6
:10333000888018B105F032FB04F0B6BCF94801688A
:1033400041F002010160006801264FF0200BCDF82A
:1033500038B000F0020013904FF00309CDF844900C
:10336000F1480EA9CDE90F66FDF7DAFB04F0F2FC97
:10337000EE4800274FF020416A460160EC49C0E961
:1033800001171021C760C0E9047109028761C76194
:10339000C0E908718900C0E90A7189010763C0E9C1
:1033A0000D711120CDE907075520099015200290D5
:1033B000CDE90007DD4807A90D970697FFF7D8F874
:1033C000322006F0C1FCD320ADF84C00BDF84C0013
:1033D000ADF84C00BDF84C00D64D2880AC1C2088C0
:1033E000ADF84C00BDF84C00CD4B2088ADF84C003A
:1033F000BDF84C002088ADF84C00BDF84C004FF6ED
:10340000FF7101EA00202188ADF84C10BDF84C1086
:10341000084319468880A0F5134141397ED0D42055
:10342000ADF84C00BDF84C00ADF84C00BDF84C00B8
:1034300028802088ADF84C00BDF84C002088ADF8FD
:103440004C00BDF84C002088ADF84C00BDF84C0095
:103450004FF6FF71228801EA0020ADF84C20BDF83C
:103460004C2010439880A0F5A642103A60D04FF44B
:103470005A40ADF84C00BDF84C00ADF84C00BDF81A
:103480004C0028802088ADF84C00BDF84C004FF46B
:103490005B40ADF84C00BDF84C00ADF84C00BDF8F9
:1034A0004C0028802088ADF84C00BDF84C004FF44B
:1034B0005C42ADF84C2001EA0020BDF84C20ADF88C
:1034C0004C20BDF84C202A802288ADF84C20BDF855
:1034D0004C2010439880B0F5004F0CBFA3F804A017
:1034E000504525D0A120ADF84C00BDF84C00ADF8FA
:1034F0004C00BDF84C0028802088ADF84C00BDF889
:103500004C002088ADF84C00BDF84C0001EA0020CA
:103510002188ADF84C10BDF84C1000E008E00843DD
:103520009880A0F5AE41613904BF41F663109880E0
:10353000998881A0FCF702FF79484FF0B10C81888F
:10354000ED20A1F51342413A00F03986E2234FF015
:10355000040EA1F5A642103A01F0AE81514544F0A7
:10356000818155204FF4704129802080481CAA2178
:1035700028802180411C522029802080491C08205D
:1035800029802080491C0120298020800D204FF4B3
:10359000304129802080491C29802080491C2980B5
:1035A000208034204FF4364129802080491C298016
:1035B0002080491C298020800D214FF43140288033
:1035C0002180401C28802180411C0D2029802080E2
:1035D00034214FF4374028802180411C3420298039
:1035E0002080491C2980208000204FF4324129800E
:1035F0002080491C29802080491C2980208024208B
:103600004FF4384129802080481C242128802180C3
:10361000401C2880218001204FF43F4129802080D8
:103620000F204FF4334129802080491C29802080BD
:10363000491C2980208034204FF439412980208082
:10364000491C29802080491C2980208008204FF4B3
:10365000354129802080481C082128802180411C78
:1036600008202980208003204FF4424129802080B7
:1036700024204FF43A4129802080491C2980208051
:10368000481C24212880218000204FF43C412980BF
:103690002080481C782128802180411C002029801E
:1036A00020804FF43D4129802080491C78202980CA
:1036B0002080481C00212880218000204FF43E41BA
:1036C00029802080481C64212880218000204FF41C
:1036D000514129802080491C332029802080491CA9
:1036E000002029802080491C342029802080491C0A
:1036F000002029802080491C3A2029802080491CF4
:10370000002029802080491C4A2029802080481CD4
:10371000002128802180411C5C202980208013E02A
:10372000B00302203038024000040240640302204B
:10373000040100A0FEFF0760204C43442049443AA6
:1037400025780D0A00000000491C298000202080F7
:10375000481C288081212180411C29800020208054
:10376000491C2980A6202080481C28800021218017
:10377000411C2980E5202080481C288001212180CF
:10378000411C298013202080491C29800120208091
:10379000491C298054202080491C29800120208038
:1037A000491C298082202080481C288001212180FA
:1037B000411C2980CA202080491C298002202080A9
:1037C000491C298000202080491C2980022020805B
:1037D000481C288001212180411C29800220208052
:1037E000491C298034202080491C29800220208007
:1037F000491C298067202080491C298002202080C4
:10380000491C298084202080491C29800220208096
:10381000491C2980A4202080491C29800220208066
:10382000491C2980B7202080491C29800220208043
:10383000491C2980CF202080491C2980022020801B
:10384000491C2980DE202080491C298002202080FC
:10385000491C2980F2202080491C298002202080D8
:10386000491C2980FE202080491C298003202080BB
:10387000491C298010202080491C29800320208099
:10388000491C298033202080491C29800320208066
:10389000491C29806D20208000204FF4524129804E
:1038A0002080491C332029802080481C002128804A
:1038B0002180411C342029802080491C002029803F
:1038C0002080491C3A2029802080491C0020298022
:1038D0002080481C4A2128802180411C002029800A
:1038E0002080491C5C2029802080491C00202980E0
:1038F0002080491C812029802080481C00212880AC
:103900002180411CA62029802080491C002029807C
:103910002080491CE52029802080481C0121288026
:103920002180411C132029802080491C01202980EE
:103930002080491C542029802080491C0120298096
:103940002080491C822029802080491C0120298058
:103950002080491CCA2029802080491C02202980FF
:103960002080491C002029802080491C02202980B9
:103970002080481C012128802180411C02202980B0
:103980002080491C342029802080491C0220298065
:103990002080491C672029802080491C0220298022
:1039A0002080491C842029802080491C02202980F5
:1039B0002080491CA42029802080491C02202980C5
:1039C0002080491CB72029802080491C02202980A2
:1039D0002080491CCF2029802080491C022029807A
:1039E0002080491CDE2029802080491C022029805B
:1039F0002080491CF22029802080491C0220298037
:103A00002080491CFE2029802080491C0320298019
:103A10002080491C102029802080491C03202980F7
:103A20002080491C332029802080491C03202980C4
:103A30002080491C6D202980208000204FF45341B4
:103A400029802080491C332029802080491C0020A7
:103A500029802080491C342029802080491C002096
:103A600029802080491C3A2029802080481C002180
:103A700028802180411C4A2029802080491C002068
:103A800029802080491C5C2029802080491C00203E
:103A900029802080491C812029802080491C002009
:103AA00029802080491CA62029802080491C0020D4
:103AB00029802080491CE52029802080491C012084
:103AC00029802080491C132029802080491C012046
:103AD00029802080491C542029802080491C0120F5
:103AE00029802080491C822029802080491C0120B7
:103AF00029802080491CCA2029802080491C02205E
:103B000029802080491C002029802080491C022017
:103B100029802080491C012029802080491C022006
:103B200029802080491C342029802080491C0220C3
:103B300029802080491C672029802080491C022080
:103B400029802080491C842029802080491C022053
:103B500029802080491CA42029802080491C022023
:103B600029802080491CB72029802080491C022000
:103B700029802080481CCF2128802180411C0220E0
:103B800029802080491CDE2029802080491C0220B9
:103B900029802080491CF22029802080491C022095
:103BA00029802080481CFE2128802180401C032180
:103BB00028802180411C102029802080491C03205E
:103BC00029802080481C332128802180411C03202B
:103BD00029802080491C6D202980208000214FF4FD
:103BE000544028802180411C332029802080491C9A
:103BF000002029802080491C342029802080491CF5
:103C0000002029802080481C3A2128802180401CE7
:103C1000002128802180411C4A2029802080491CC5
:103C2000002029802080491C5C2029802080491C9C
:103C3000002029802080481C812128802180411C6F
:103C4000002029802080491CA62029802080491C32
:103C5000002029802080481CE52128802180401CEC
:103C6000012128802180411C132029802080491CAB
:103C7000012029802080481C542128802180411C5B
:103C8000012029802080491C822029802080481C16
:103C9000012128802180411CCA2029802080481CC5
:103CA000022128802180401C002128802180401C86
:103CB000022128802180411C012029802080491C6C
:103CC000022029802080491C342029802080481C23
:103CD000022128802180411C672029802080491CE6
:103CE000022029802080491C842029802080481CB3
:103CF000022128802180411CA42029802080491C89
:103D0000022029802080491CB72029802080481C5F
:103D1000022128802180411CCF2029802080491C3D
:103D2000022029802080491CDE2029802080491C17
:103D3000022029802080491CF22029802080481CF4
:103D4000022128802180401CFE2128802180411CE6
:103D5000032029802080481C102128802180401CBD
:103D6000032128802180411C332029802080491C88
:103D7000032029802080491C6D202980208000217B
:103D80004FF4554028802180411C33202980208019
:103D9000481C002128802180411C3420298020805B
:103DA000491C002029802080491C3A20298020803D
:103DB000491C002029802080491C4A20298020801D
:103DC000491C002029802080491C5C2029802080FB
:103DD000481C002128802180411C812029802080CE
:103DE000491C002029802080491CA6202980208091
:103DF000481C002128802180411CE520298020804A
:103E0000491C012029802080491C13202980208002
:103E1000491C012029802080481C542128802180B1
:103E2000411C012029802080491C8220298020807B
:103E3000481C012128802180411CCA202980208023
:103E4000491C022029802080491C002029802080D4
:103E5000491C022029802080491C012029802080C3
:103E6000491C022029802080481C34212880218080
:103E7000411C022029802080491C67202980208045
:103E8000481C022128802180411C84202980208018
:103E9000491C022029802080491CA42029802080E0
:103EA000491C022029802080481CB72128802180BD
:103EB000411C022029802080491CCF20298020809D
:103EC000491C022029802080481CDE212880218076
:103ED000411C022029802080491CF220298020805A
:103EE000491C022029802080481CFE212880218036
:103EF000411C032029802080491C1020298020801B
:103F0000491C032029802080491C332029802080DF
:103F1000491C032029802080481C6D212880218095
:103F200000214FF4564028802180401C33212880F6
:103F30002180401C002128802180411C34202980C0
:103F40002080481C002128802180411C3A202980A3
:103F50002080491C002029802080491C4A2029807B
:103F60002080491C002029802080491C5C20298059
:103F70002080491C002029802080491C8120298024
:103F80002080491C002029802080491CA6202980EF
:103F90002080491C002029802080491CE5202980A0
:103FA0002080491C012029802080491C1320298061
:103FB0002080491C012029802080491C5420298010
:103FC0002080491C012029802080491C82202980D2
:103FD0002080491C012029802080481CCA2128807B
:103FE0002180411C022029802080491C002029803A
:103FF0002080491C022029802080491C0120298022
:104000002080491C022029802080491C34202980DE
:104010002080491C022029802080491C672029809B
:104020002080491C022029802080491C842029806E
:104030002080491C022029802080491CA42029803E
:104040002080491C022029802080491CB72029801B
:104050002080491C022029802080491CCF202980F3
:104060002080491C022029802080491CDE202980D4
:104070002080491C022029802080491CF2202980B0
:104080002080491C022029802080491CFE20298094
:104090002080491C032029802080481C1021288072
:1040A0002180411C032029802080491C3320298045
:1040B0002080481C032128802180401C6D212880FD
:1040C000218055214FF4704028802180411CAA2076
:1040D00029802080491C522029802080491C0820EA
:1040E00029802080491C002029802080CC204FF48A
:1040F000314129802080491C002029802080052012
:104100004FF436412980208070204FF437412980B8
:104110002080491C2980208001204FF438412980CB
:104120002080491C032029802080491C2980208070
:10413000491C2980208002204FF43C4129802080A6
:10414000491C002029802080491C29802080D02003
:104150004FF4494129802080491C02202980208079
:10416000491C502029802080491C29802080491C1E
:104170002980208000204FF4545129802080552030
:104180004FF46851298020804FF48850ADF84C00DE
:10419000BDF84C00ADF84C00BDF84C0028807820EC
:1041A00005F0F8FD4FF42450ADF84C00BDF84C007C
:1041B000ADF84C00BDF84C00288003F075BDCF2150
:1041C000ADF84C10BDF84C10ADF84C10BDF84C10CB
:1041D0002980ADF84C70BDF84C10ADF84C10BDF80E
:1041E0004C102180C123ADF84C30BDF84C10ADF817
:1041F0004C10BDF84C1021803021ADF84C10BDF8AA
:104200004C20ADF84C20BDF84C202280ADF84C007D
:10421000BDF84C00ADF84C00BDF84C00288064207F
:10422000ADF84C00BDF84C00ADF84C00BDF84C00AA
:104230002080ADF84C90BDF84C00ADF84C00BDF8B6
:104240004C0020801220ADF84C00BDF84C00ADF8B9
:104250004C00BDF84C0020808120ADF84C00BDF82A
:104260004C00ADF84C00BDF84C002080E820ADF8C3
:104270004C00BDF84C00ADF84C00BDF84C00288057
:104280008520ADF84C00BDF84C00ADF84C00BDF8F1
:104290004C0020801022ADF84C20BDF84C00ADF849
:1042A0004C00BDF84C0020807A20ADF84C00BDF8E1
:1042B0004C00ADF84C00BDF84C002080CB20ADF890
:1042C0004C00BDF84C00ADF84C00BDF84C00288007
:1042D0003920ADF84C00BDF84C00ADF84C00BDF8ED
:1042E0004C0020802C20ADF84C00BDF84C00ADF8FF
:1042F0004C00BDF84C002080ADF84C70BDF84C006F
:10430000ADF84C00BDF84C0020803420ADF84C00D6
:10431000BDF84C00ADF84C00BDF84C0020800220E8
:10432000ADF84C00BDF84C00ADF84C00BDF84C00A9
:104330002080F720ADF84C00BDF84C00ADF84C00E3
:10434000BDF84C002880ADF84CB0BDF84C00ADF87D
:104350004C00BDF84C002080EA20ADF84C00BDF8C0
:104360004C00ADF84C00BDF84C002880ADF84C7006
:10437000BDF84C00ADF84C00BDF84C002080ADF805
:104380004C70BDF84C00ADF84C00BDF84C002080DE
:10439000C020ADF84C00BDF84C00ADF84C00BDF8A5
:1043A0004C0028801B20ADF84C00BDF84C00ADF847
:1043B0004C00BDF84C002080ADF84C30BDF84C00EE
:1043C000ADF84C00BDF84C002880ADF84C60BDF84D
:1043D0004C00ADF84C00BDF84C002080C520ADF875
:1043E0004C00BDF84C00ADF84C00BDF84C002880E6
:1043F000ADF84C10BDF84C00ADF84C00BDF84C00C9
:104400002080ADF84C10BDF84C00ADF84C00BDF864
:104410004C002080C720ADF84C00BDF84C00ADF832
:104420004C00BDF84C002880B720ADF84C00BDF81A
:104430004C00ADF84C00BDF84C0020803620ADF8A3
:104440004C00BDF84C00ADF84C00BDF84C00288085
:104450004820ADF84C00BDF84C00ADF84C00BDF85C
:104460004C0020803A20ADF84C00BDF84C00ADF86F
:104470004C00BDF84C0028805520ADF84C00BDF82C
:104480004C00ADF84C00BDF84C002080ADF84CC09D
:10449000BDF84C00ADF84C00BDF84C002880ADF8DC
:1044A0004C70BDF84C00ADF84C00BDF84C002080BD
:1044B0001A20ADF84C00BDF84C00ADF84C00BDF82A
:1044C0004C002080B620ADF84C00BDF84C00ADF893
:1044D0004C00BDF84C0028804FF00A0CADF84CC0E1
:1044E000BDF84C00ADF84C00BDF84C002080A22077
:1044F000ADF84C00BDF84C00ADF84C00BDF84C00D8
:104500002080F220ADF84C00BDF84C00ADF84C0016
:10451000BDF84C002880ADF84C70BDF84C00ADF8EB
:104520004C00BDF84C0020802620ADF84C00BDF8B2
:104530004C00ADF84C00BDF84C002880ADF84C6044
:10454000BDF84C00ADF84C00BDF84C002080E020D8
:10455000ADF84C00BDF84C00ADF84C00BDF84C0077
:1045600028800F20ADF84C00BDF84C10ADF84C1071
:10457000BDF84C1021802A23ADF84C30BDF84C100A
:10458000ADF84C10BDF84C1021802821ADF84C102E
:10459000BDF84C10ADF84C10BDF84C10218008212E
:1045A000ADF84C10BDF84C90ADF84C90BDF84C9067
:1045B000A4F800904FF00E09ADF84C90BDF84C9067
:1045C000ADF84C90BDF84C90A4F80090ADF84C10AC
:1045D000BDF84C10ADF84C10BDF84C1021805421A2
:1045E000ADF84C10BDF84C10ADF84C10BDF84C10A7
:1045F0002180A921ADF84C10BDF84C10ADF84C103D
:10460000BDF84C1021804321ADF84C10BDF84C1082
:10461000ADF84C10BDF84C102180ADF84CC0BDF881
:104620004C10ADF84C10BDF84C102180ADF84C008A
:10463000BDF84C10ADF84C10BDF84C102180ADF811
:104640004C70BDF84C10ADF84C10BDF84C102180EA
:10465000ADF84C70BDF84C10ADF84C10BDF84C10D6
:104660002180ADF84C70BDF84C10ADF84C10BDF881
:104670004C102180ADF84C70BDF84C10ADF84C10CA
:10468000BDF84C102180E121ADF84C10BDF84C1064
:10469000ADF84C10BDF84C102980ADF84C70BDF849
:1046A0004C10ADF84C10BDF84C1021801521ADF820
:1046B0004C10BDF84C10ADF84C10BDF84C102180DA
:1046C0001721ADF84C10BDF84C10ADF84C10BDF8EA
:1046D0004C1021800721ADF84C10BDF84C10ADF8FE
:1046E0004C10BDF84C1021801121ADF84C10BDF8D4
:1046F0004CC0ADF84CC0BDF84CC0A4F800C04FF0A1
:10470000060CADF84CC0BDF84CC0ADF84CC0BDF8BF
:104710004CC0A4F800C04FF02B0CADF84CC0BDF855
:104720004C90ADF84C90BDF84C90A4F800904FF030
:104730005609ADF84C90BDF84C90ADF84C90BDF8D2
:104740004C90A4F800904FF03C09ADF84C90BDF8A7
:104750004C90ADF84C90BDF84C90A4F80090ADF89A
:104760004C80BDF84C90ADF84C90BDF84C90A4F83E
:104770000090ADF84C20BDF84C20ADF84C20BDF8B1
:104780004C202280ADF84C00BDF84C20ADF84C20F8
:10479000BDF84C2022803F22ADF84C20BDF84C9053
:1047A000ADF84C90BDF84C90A4F80090ADF84C20BA
:1047B000BDF84C90ADF84C90BDF84C90A4F800902A
:1047C000ADF84C00BDF84C00ADF84C00BDF84C0005
:1047D0002080ADF84CC0BDF84C00ADF84C00BDF8E1
:1047E0004C002880ADF84C70BDF84C00ADF84C0082
:1047F000BDF84C002080ADF84C70BDF84C00ADF811
:104800004C00BDF84C002080ADF84C60BDF84C0069
:10481000ADF84C00BDF84C002080ADF84C20BDF840
:104820004C00ADF84C00BDF84C002080ADF84C3089
:10483000BDF84C00ADF84C00BDF84C002880ADF838
:104840004C70BDF84C00ADF84C00BDF84C00208019
:10485000ADF84C70BDF84C00ADF84C00BDF84C0004
:104860002080ADF84C70BDF84C00ADF84C00BDF8A0
:104870004C002080EF20ADF84C00BDF84C00ADF8A6
:104880004C00BDF84C002080ADF84C10BDF84C0039
:10489000ADF84C00BDF84C002880782005F054FAA3
:1048A0002920ADF84C00BDF84C00ADF84C00BDF827
:1048B0004C00288003F0F8B9ADF84C00BDF84C006E
:1048C000ADF84C00BDF84C002880ADF84C60BDF848
:1048D0004C00ADF84C00BDF84C002080FE20ADF837
:1048E0004C00BDF84C00ADF84C00BDF84C002080E9
:1048F000EE20ADF84C00BDF84C00ADF84C00BDF812
:104900004C002880DE20ADF84C00BDF84C00ADF81E
:104910004C00BDF84C0020802122ADF84C20BDF8A1
:104920004C00ADF84C00BDF84C002080F120ADF8F3
:104930004C00BDF84C00ADF84C00BDF84C00288090
:104940000120ADF84C00BDF84C00ADF84C00BDF8AE
:104950004C002080DF20ADF84C00BDF84C00ADF8D5
:104960004C00BDF84C0028801020ADF84C00BDF87C
:104970004C00ADF84C00BDF84C002080C420ADF8D0
:104980004C00BDF84C00ADF84C00BDF84C00288040
:104990008F20ADF84C00BDF84C00ADF84C00BDF8D0
:1049A0004C002080C620ADF84C00BDF84C00ADF89E
:1049B0004C00BDF84C0028803946ADF84C70BDF86D
:1049C0004C00ADF84C00BDF84C002080E223ADF85F
:1049D0004C30BDF84C00ADF84C00BDF84C002080C8
:1049E000ADF84C30BDF84C00ADF84C00BDF84C00B3
:1049F0002080ADF84C30BDF84C00ADF84C00BDF84F
:104A00004C002080BF20ADF84C00BDF84C00ADF844
:104A10004C00BDF84C002880AA20ADF84C00BDF831
:104A20004C00ADF84C00BDF84C002080B020ADF833
:104A30004C00BDF84C00ADF84C00BDF84C0028808F
:104A40000D20ADF84C00BDF84C00ADF84C00BDF8A1
:104A50004C002080ADF84C10BDF84C00ADF84C0077
:104A6000BDF84C0020800D20ADF84C00BDF84C0086
:104A7000ADF84C00BDF84C002080ADF84C10BDF8EE
:104A80004C00ADF84C00BDF84C0020801120ADF872
:104A90004C00BDF84C00ADF84C00BDF84C00208037
:104AA000ADF84C10BDF84C00ADF84C00BDF84C0012
:104AB00020801920ADF84C00BDF84C00ADF84C003A
:104AC000BDF84C002080ADF84C10BDF84C00ADF89E
:104AD0004C00BDF84C002080ADF84C20BDF84C00D7
:104AE000ADF84C00BDF84C002080ADF84C10BDF87E
:104AF0004C00ADF84C00BDF84C0020802D20ADF8E6
:104B00004C00BDF84C00ADF84C00BDF84C002080C6
:104B1000ADF84C10BDF84C00ADF84C00BDF84C00A1
:104B200020803D20ADF84C00BDF84C00ADF84C00A5
:104B3000BDF84C002080ADF84C10BDF84C00ADF82D
:104B40004C00BDF84C0020805D22ADF84C20BDF833
:104B50004C00ADF84C00BDF84C002080ADF84C1076
:104B6000BDF84C00ADF84C00BDF84C002080ADF80D
:104B70004C20BDF84C00ADF84C00BDF84C00208036
:104B8000ADF84C10BDF84C00ADF84C00BDF84C0031
:104B90002080ADF84CC0BDF84C00ADF84C00BDF81D
:104BA0004C0028808020ADF84C00BDF84C00ADF8DA
:104BB0004C00BDF84C002080ADF84C10BDF84C0006
:104BC000ADF84C00BDF84C0020804FF08B0CADF8D8
:104BD0004CC0BDF84C00ADF84C00BDF84C00208036
:104BE000ADF84C10BDF84C00ADF84C00BDF84C00D1
:104BF00020809627ADF84C70BDF84C00ADF84C0005
:104C0000BDF84C002080ADF84C10BDF84C00ADF85C
:104C10004C00BDF84C002080B220ADF84C00BDF82F
:104C20004C00ADF84C00BDF84C002880ADF84C109D
:104C3000BDF84C00ADF84C00BDF84C002080ADF83C
:104C40004C10BDF84C00ADF84C00BDF84C2020468F
:104C500022800223ADF84C30BDF84C20ADF84C203A
:104C6000BDF84C202280ADF84C10BDF84C20ADF8BA
:104C70004C20BDF84C202280ADF84C90BDF84C2063
:104C8000ADF84C20BDF84C200280ADF84C10BDF8BA
:104C90004C20ADF84C20BDF84C200280B322ADF87A
:104CA0004C20BDF84C20ADF84C20BDF84C202A809B
:104CB000ADF84C10BDF84C20ADF84C20BDF84C20A0
:104CC0000280ADF84C10BDF84C20ADF84C20BDF87A
:104CD0004C200280ADF84C10BDF84C20ADF84C20B3
:104CE000BDF84C200280ADF84C10BDF84C20ADF85A
:104CF0004C20BDF84C200280ADF84C10BDF84C2083
:104D0000ADF84C20BDF84C200280ADF84C10BDF839
:104D10004C20ADF84C20BDF84C200280ADF84C1072
:104D2000BDF84C20ADF84C20BDF84C200280ADF809
:104D30004C10BDF84C20ADF84C20BDF84C20028042
:104D4000ADF84C10BDF84C20ADF84C20BDF84C200F
:104D50000280ADF84C10BDF84C20ADF84C20BDF8E9
:104D60004C200280ADF84C10BDF84C20ADF84C2022
:104D7000BDF84C200280ADF84C10BDF84C20ADF8C9
:104D80004C20BDF84C200280ADF84C10BDF84C20F2
:104D9000ADF84C20BDF84C200280ADF84C10BDF8A9
:104DA0004C20ADF84C20BDF84C200280ADF84C10E2
:104DB000BDF84C20ADF84C20BDF84C200280ADF879
:104DC0004C10BDF84C20ADF84C20BDF84C200280B2
:104DD000ADF84C10BDF84C20ADF84C20BDF84C207F
:104DE0000280ADF84C10BDF84C20ADF84C20BDF859
:104DF0004C200280ADF84C10BDF84C20ADF84C2092
:104E0000BDF84C200280ADF84C10BDF84C20ADF838
:104E10004C20BDF84C200280ADF84C10BDF84C2061
:104E2000ADF84C20BDF84C200280ADF84C10BDF818
:104E30004C20ADF84C20BDF84C200280ADF84C1051
:104E4000BDF84C20ADF84C20BDF84C200280ADF8E8
:104E50004C10BDF84C20ADF84C20BDF84C20028021
:104E6000B422ADF84C20BDF84C20ADF84C20BDF874
:104E70004C202A808B22ADF84C20BDF84C20ADF898
:104E80004C20BDF84C200280ADF84C10BDF84C20F1
:104E9000ADF84C20BDF84C200280ADF84C70BDF848
:104EA0004C20ADF84C20BDF84C200280ADF84C10E1
:104EB000BDF84C20ADF84C20BDF84C200280A1225A
:104EC000ADF84C20BDF84C20ADF84C20BDF84C207E
:104ED0000280ADF84C10BDF84C20ADF84C20BDF868
:104EE0004C200280B522ADF84C20BDF84C20ADF826
:104EF0004C20BDF84C202A80ADF84C30BDF84C2039
:104F0000ADF84C20BDF84C200280ADF84C10BDF837
:104F10004C20ADF84C20BDF84C200280ADF84C90F0
:104F2000BDF84C20ADF84C20BDF84C200280ADF807
:104F30004C10BDF84C20ADF84C20BDF84C20028040
:104F40007246ADF84CE0BDF84C30ADF84C30BDF8D1
:104F50004C300380ADF84C10BDF84C30ADF84C30FF
:104F6000BDF84C300380B623ADF84C30BDF84C3062
:104F7000ADF84C30BDF84C302B80ADF84C10BDF87E
:104F80004C30ADF84C30BDF84C300380ADF84C10CF
:104F9000BDF84C30ADF84C30BDF84C300380B72331
:104FA000ADF84C30BDF84C30ADF84C30BDF84C305D
:104FB0002B80ADF84C10BDF84C30ADF84C30BDF83E
:104FC0004C300380ADF84C10BDF84C30ADF84C308F
:104FD000BDF84C3003803F23ADF84C30BDF84C3069
:104FE000ADF84C30BDF84C300380ADF84C10BDF836
:104FF0004C30ADF84C30BDF84C3003805E23ADF83A
:105000004C30BDF84C30ADF84C30BDF84C3003801E
:10501000ADF84C10BDF84C30ADF84C30BDF84C300C
:1050200003806423ADF84C30BDF84C30ADF84C3003
:10503000BDF84C300380ADF84C10BDF84C30ADF8E5
:105040004C30BDF84C3003808C23ADF84C30BDF8AB
:105050004C30ADF84C30BDF84C300380ADF84C10FE
:10506000BDF84C30ADF84C30BDF84C300380AC236B
:10507000ADF84C30BDF84C30ADF84C30BDF84C308C
:105080000380ADF84C10BDF84C30ADF84C30BDF895
:105090004C300380DC23ADF84C30BDF84CC0ADF88B
:1050A0004CC0BDF84CC0A0F800C0ADF84C10BDF825
:1050B0004CC0ADF84CC0BDF84CC0A0F800C04FF0DB
:1050C000700CADF84CC0BDF84CC0ADF84CC0BDF88C
:1050D0004CC0A0F800C0ADF84C10BDF84CC0ADF805
:1050E0004CC0BDF84CC0A0F800C04FF0900CADF81B
:1050F0004CC0BDF84CC0ADF84CC0BDF84CC0A0F8D9
:1051000000C0ADF84C10BDF84CC0ADF84CC0BDF8B7
:105110004CC0A0F800C04FF0EB0CADF84CC0BDF88F
:105120004CC0ADF84CC0BDF84CC0A0F800C0ADF804
:105130004C10BDF84CC0ADF84CC0BDF84CC0A0F848
:1051400000C0ADF84C30BDF84C30ADF84C30BDF877
:105150004C300380ADF84C10BDF84C30ADF84C30FD
:10516000BDF84C300380B823ADF84C30BDF84C305E
:10517000ADF84C30BDF84C302B80ADF84C10BDF87C
:105180004C30ADF84C30BDF84C300380ADF84C10CD
:10519000BDF84C30ADF84C30BDF84C300380ADF864
:1051A0004C10BDF84C30ADF84C30BDF84C3003809D
:1051B000ADF84C10BDF84C30ADF84C30BDF84C306B
:1051C0000380ADF84C10BDF84C30ADF84C30BDF854
:1051D0004C300380ADF84C10BDF84C30ADF84C307D
:1051E000BDF84C300380ADF84C10BDF84C30ADF834
:1051F0004C30BDF84C300380ADF84C10BDF84C304D
:10520000ADF84C30BDF84C300380BA23ADF84C30CB
:10521000BDF84C30ADF84C30BDF84C302B80242418
:10522000ADF84C40BDF84C30ADF84C30BDF84C30CA
:105230000380ADF84C10BDF84C30ADF84C30BDF8E3
:105240004C300380ADF84C10BDF84C30ADF84C300C
:10525000BDF84C300380ADF84C10BDF84C30ADF8C3
:105260004C30BDF84C300380C123ADF84C30BDF854
:105270004C30ADF84C30BDF84C302B802023ADF8CD
:105280004C30BDF84C30ADF84C30BDF84C3003809C
:10529000ADF84C10BDF84C30ADF84C30BDF84C308A
:1052A00003805423ADF84C30BDF84C30ADF84C3091
:1052B000BDF84C300380ADF84C10BDF84C30ADF863
:1052C0004C30BDF84C300380FF23ADF84C30BDF8B6
:1052D0004C30ADF84C30BDF84C300380ADF84C107C
:1052E000BDF84C30ADF84C30BDF84C300380C223D3
:1052F000ADF84C30BDF84C30ADF84C30BDF84C300A
:105300002B800A23ADF84C30BDF84C30ADF84C3052
:10531000BDF84C300380ADF84C10BDF84C30ADF802
:105320004C30BDF84C300380ADF84C20BDF84C201B
:10533000ADF84C20BDF84C200280ADF84C10BDF803
:105340004C20ADF84C20BDF84C200280C322ADF8B3
:105350004C20BDF84C20ADF84C20BDF84C202A80E4
:105360003C23ADF84C30BDF84C20ADF84C20BDF8D6
:105370004C200280ADF84C10BDF84C20ADF84C200C
:10538000BDF84C2002803A22ADF84C20BDF84C20EC
:10539000ADF84C20BDF84C200280ADF84C10BDF8A3
:1053A0004C20ADF84C20BDF84C2002803922ADF8DD
:1053B0004C20BDF84C20ADF84C20BDF84C200280AC
:1053C000ADF84C10BDF84C20ADF84C20BDF84C2089
:1053D00002803722ADF84C20BDF84C20ADF84C20AF
:1053E000BDF84C200280ADF84C10BDF84C20ADF853
:1053F0004C20BDF84C200280ADF84C30BDF84C205C
:10540000ADF84C20BDF84C200280ADF84C10BDF832
:105410004C20ADF84C20BDF84C2002803622ADF86F
:105420004C20BDF84C20ADF84C20BDF84C2002803B
:10543000ADF84C10BDF84C20ADF84C20BDF84C2018
:1054400002803227ADF84C70BDF84C20ADF84C20EE
:10545000BDF84C200280ADF84C10BDF84C20ADF8E2
:105460004C20BDF84C2002804FF02F09ADF84C9035
:10547000BDF84C20ADF84C20BDF84C200280ADF8B2
:105480004C10BDF84C20ADF84C20BDF84C200280EB
:105490004FF02C0BADF84CB0BDF84C20ADF84C20C3
:1054A000BDF84C200280ADF84C10BDF84C20ADF892
:1054B0004C20BDF84C2002804FF0290EADF84CE096
:1054C000BDF84C20ADF84C20BDF84C200280ADF862
:1054D0004C10BDF84C20ADF84C20BDF84C2002809B
:1054E0002622ADF84C20BDF84C20ADF84C20BDF87C
:1054F0004C200280ADF84C10BDF84C20ADF84C208B
:10550000BDF84C200280ADF84C40BDF84C20ADF801
:105510004C20BDF84C200280ADF84C10BDF84C205A
:10552000ADF84C20BDF84C200280ADF84C40BDF8E1
:105530004C20ADF84C20BDF84C200280ADF84C104A
:10554000BDF84C20ADF84C20BDF84C2002804FF047
:10555000230CADF84CC0BDF84C20ADF84C20BDF884
:105560004C200280ADF84C10BDF84C20ADF84C201A
:10557000BDF84C200280ADF84C30BDF84C20ADF8A1
:105580004C20BDF84C200280ADF84C10BDF84C20EA
:10559000ADF84C20BDF84C2002803622ADF84C20EE
:1055A000BDF84C20ADF84C20BDF84C200280ADF881
:1055B0004C10BDF84C20ADF84C20BDF84C200280BA
:1055C000ADF84C70BDF84C20ADF84C20BDF84C2027
:1055D0000280ADF84C10BDF84C20ADF84C20BDF861
:1055E0004C200280ADF84C90BDF84C20ADF84C201A
:1055F000BDF84C200280ADF84C10BDF84C20ADF841
:105600004C20BDF84C200280ADF84CB0BDF84C20C9
:10561000ADF84C20BDF84C200280ADF84C10BDF820
:105620004C20ADF84C20BDF84C200280ADF84CE089
:10563000BDF84C20ADF84C20BDF84C200280ADF8F0
:105640004C10BDF84C20ADF84C20BDF84C20028029
:105650002622ADF84C20BDF84C20ADF84C20BDF80A
:105660004C200280ADF84C10BDF84C20ADF84C2019
:10567000BDF84C200280ADF84C40BDF84C20ADF890
:105680004C20BDF84C200280ADF84C10BDF84C20E9
:10569000ADF84C20BDF84C200280ADF84C40BDF870
:1056A0004C20ADF84C20BDF84C200280ADF84C10D9
:1056B000BDF84C20ADF84C20BDF84C200280ADF870
:1056C0004CC0BDF84C20ADF84C20BDF84C200280F9
:1056D000ADF84C10BDF84C20ADF84C20BDF84C2076
:1056E0000280C422ADF84C20BDF84C20ADF84C200F
:1056F000BDF84C202A806222ADF84C20BDF84C2029
:10570000ADF84C20BDF84C200280ADF84C10BDF82F
:105710004C20ADF84C20BDF84C200280ADF84C80F8
:10572000BDF84C20ADF84C20BDF84C200280ADF8FF
:105730004C10BDF84C20ADF84C20BDF84C20028038
:105740008422ADF84C20BDF84C20ADF84C20BDF8BB
:105750004C200280ADF84C10BDF84C20ADF84C2028
:10576000BDF84C200280F022ADF84C20BDF84C2052
:10577000ADF84C20BDF84C200280ADF84C10BDF8BF
:105780004C20ADF84C20BDF84C2002801822ADF81A
:105790004C20BDF84C20ADF84C20BDF84C200280C8
:1057A000ADF84C10BDF84C20ADF84C20BDF84C20A5
:1057B0000280A422ADF84C20BDF84C20ADF84C205E
:1057C000BDF84C200280ADF84C10BDF84C20ADF86F
:1057D0004C20BDF84C2002801822ADF84C20BDF8BA
:1057E0004C20ADF84C20BDF84C200280ADF84C1098
:1057F000BDF84C20ADF84C20BDF84C200280502262
:10580000ADF84C20BDF84C20ADF84C20BDF84C2034
:105810000280ADF84C10BDF84C20ADF84C20BDF81E
:105820004C2002800C22ADF84C20BDF84C20ADF885
:105830004C20BDF84C200280ADF84C10BDF84C2037
:10584000ADF84C20BDF84C2002801722ADF84C205A
:10585000BDF84C20ADF84C20BDF84C200280ADF8CE
:105860004C10BDF84C20ADF84C20BDF84C20028007
:105870009522ADF84C20BDF84C20ADF84C20BDF879
:105880004C200280ADF84C10BDF84C20ADF84C20F7
:10589000BDF84C200280F322ADF84C20BDF84C201E
:1058A000ADF84C20BDF84C200280ADF84C10BDF88E
:1058B0004C20ADF84C20BDF84C200280E622ADF81B
:1058C0004C20BDF84C20ADF84C20BDF84C20028097
:1058D000ADF84C10BDF84C20ADF84C20BDF84C2074
:1058E0000280C522ADF84C20BDF84C20ADF84C200C
:1058F000BDF84C202A803222ADF84C20BDF84C2057
:10590000ADF84C20BDF84C200280ADF84C10BDF82D
:105910004C20ADF84C20BDF84C2002804422ADF85C
:105920004C20BDF84C20ADF84C20BDF84C20028036
:10593000ADF84C10BDF84C20ADF84C20BDF84C2013
:1059400002806522ADF84C20BDF84C20ADF84C200B
:10595000BDF84C200280ADF84C10BDF84C20ADF8DD
:105960004C20BDF84C2002807622ADF84C20BDF8CA
:105970004C20ADF84C20BDF84C200280ADF84C1006
:10598000BDF84C20ADF84C20BDF84C200280882298
:10599000ADF84C20BDF84C20ADF84C20BDF84C20A3
:1059A0000280ADF84C10BDF84C20ADF84C20BDF88D
:1059B0004C200280C622ADF84C20BDF84C20ADF83A
:1059C0004C20BDF84C202A802022ADF84C20BDF898
:1059D0004C20ADF84C20BDF84C200280ADF84C10A6
:1059E000BDF84C20ADF84C20BDF84C2002801722A9
:1059F000ADF84C20BDF84C20ADF84C20BDF84C2043
:105A00000280ADF84C10BDF84C20ADF84C20BDF82C
:105A10004C2002800122ADF84C20BDF84C20ADF89E
:105A20004C20BDF84C200280ADF84C10BDF84C2045
:105A3000ADF84C20BDF84C200280C722ADF84C20B8
:105A4000BDF84C20ADF84C20BDF84C202A80ADF8B4
:105A50004C10BDF84C20ADF84C20BDF84C20028015
:105A6000ADF84C10BDF84C20ADF84C20BDF84C20E2
:105A70000280ADF84C10BDF84C20ADF84C20BDF8BC
:105A80004C200280ADF84C10BDF84C20ADF84C20F5
:105A9000BDF84C200280C822ADF84C20BDF84C2047
:105AA000ADF84C20BDF84C202A80ADF84C10BDF864
:105AB0004C20ADF84C20BDF84C200280ADF84C10C5
:105AC000BDF84C20ADF84C20BDF84C200280ADF85C
:105AD0004C10BDF84C20ADF84C20BDF84C20028095
